:100000000C9454000C9473000C9473000C947300C3
:100010000C9473000C9473000C9473000C94730094
:100020000C9473000C9473000C9473000C94730084
:100030000C9473000C9465030C9473000C9473007F
:100040000C9473000C9473000C9473000C94730064
:100050000C9473000C9473000C9473000C94730054
:100060000C9473000C9473000C9473000C94730044
:100070000C9473000C9473000C9473000C94730034
:100080000C9473000C9473000C9473004F048A0456
:100090009404D70418057A05C80575077F079107EA
:1000A000B6079A07A207B60711241FBECFEFD0E408
:1000B000DEBFCDBF11E0A0E0B1E0E2ECF5E100E091
:1000C0000BBF02C007900D92A634B107D9F724E008
:1000D000A6E4B1E001C01D92A031B207E1F70E9491
:1000E000C4070C94DF0A0C940000CF93DF93CDB7C4
:1000F000DEB781E00E949C000000DF91CF9108955F
:10010000CF93DF93CDB7DEB784E690E00E946B011A
:1001100088E30E949C0086E00E949C008FE00E9481
:100120009C0081E00E949C008AE090E00E946B01AC
:100130000000DF91CF910895CF93DF931F92CDB749
:10014000DEB789838BE290E02BE230E0F901208179
:100150002E7FFC01208382E290E02981FC01208334
:100160008BE290E02BE230E0F90120812460FC0179
:10017000208300008BE290E02BE230E0F901208147
:100180002B7FFC01208382E090E00E946B01000045
:100190000F90DF91CF910895CF93DF931F92CDB74A
:1001A000DEB789838BE290E02BE230E0F901208119
:1001B0002160FC01208382E290E02981FC01208300
:1001C0008BE290E02BE230E0F90120812460FC0119
:1001D000208300008BE290E02BE230E0F9012081E7
:1001E0002B7FFC01208381E090E00E946B010000E6
:1001F0000F90DF91CF910895CF93DF9300D000D07F
:10020000CDB7DEB78A837C836B830E9475008A81B9
:10021000898311C0898191E0980F99830E945401CC
:100220008B819C819C012F5F3F4F3C832B83FC0182
:1002300080810E94CC008B819C81FC01808188237D
:1002400049F700000F900F900F900F90DF91CF9122
:100250000895CF93DF9300D000D0CDB7DEB78A8367
:100260007C836B838A81898311C0898191E0980F97
:1002700099830E9454018B819C819C012F5F3F4F89
:100280003C832B83FC0180810E94CC008B819C816C
:10029000FC018081882349F700000F900F900F9098
:1002A0000F90DF91CF910895CF93DF931F92CDB739
:1002B000DEB789838981813128F4898181580E9440
:1002C0009C0004C0898181550E949C0000000F9011
:1002D000DF91CF910895CF93DF9300D000D000D06D
:1002E000CDB7DEB79E838D831A82198213C01C821C
:1002F0001B8206C000008B819C8101969C838B83AE
:100300008B819C8187309340ACF389819A810196DF
:100310009A83898329813A818D819E8128173907A3
:1003200034F3000026960FB6F894DEBF0FBECDBFA3
:10033000DF91CF910895CF93DF9300D01F92CDB777
:10034000DEB789836A834B838B81882371F08A812E
:10035000282F30E081E090E002C0880F991F2A9595
:10036000E2F7982F8981892B0EC08A81282F30E0EF
:1003700081E090E002C0880F991F2A95E2F7982F3C
:100380009095898189230F900F900F90DF91CF91E5
:100390000895CF93DF9300D0CDB7DEB789836A830A
:1003A0008A81282F30E081E090E002C0880F991FF9
:1003B0002A95E2F7982F898189230F900F90DF917A
:1003C000CF9108950F931F93CF93DF93CDB7DEB7EF
:1003D00008E210E040E064E08FEF0E949B01F8012A
:1003E0008083000086E290E0FC018081809560E0DF
:1003F0000E94C901882311F081E399C086E290E050
:10040000FC018081809561E00E94C901882311F080
:1004100084E38DC086E290E0FC018081809562E0FB
:100420000E94C901882311F087E381C086E290E031
:10043000FC018081809563E00E94C901882311F04E
:100440008AE275C008E210E040E065E08FEF0E94AC
:100450009B01F8018083000086E290E0FC0180812E
:10046000809560E00E94C901882311F082E35FC09B
:1004700086E290E0FC018081809561E00E94C901E4
:10048000882311F085E353C086E290E0FC0180816F
:10049000809562E00E94C901882311F088E347C07B
:1004A00086E290E0FC018081809563E00E94C901B2
:1004B000882311F080E33BC008E210E040E066E0F2
:1004C0008FEF0E949B01F8018083000086E290E09C
:1004D000FC018081809560E00E94C901882311F0B1
:1004E00083E325C086E290E0FC018081809561E095
:1004F0000E94C901882311F086E319C086E290E0CA
:10050000FC018081809562E00E94C901882311F07E
:1005100089E30DC086E290E0FC018081809563E074
:100520000E94C901882311F083E201C080E0DF91BD
:10053000CF911F910F910895CF93DF93CDB7DEB781
:100540002C970FB6F894DEBF0FBECDBF6D837E83B0
:100550008F83988729873A874B875C878D819E8117
:10056000AF81B88529853A854B855C85BC01CD0175
:100570000E94BA09DC01CB0189839A83AB83BC83D7
:1005800089819A81AB81BC81892B8A2B8B2B29F4A1
:1005900089859A85AB85BC8511C089859A85AB858F
:1005A000BC858D839E83AF83B88789819A81AB8117
:1005B000BC8189879A87AB87BC87D0CFBC01CD012E
:1005C0002C960FB6F894DEBF0FBECDBFDF91CF9152
:1005D0000895CF93DF9300D000D0CDB7DEB7698305
:1005E0007A838B839C8389819A81AB81BC81809340
:1005F000000190930101A0930201B0930301809147
:10060000000190910101A0910201B091030180933A
:10061000470190934801A0934901B0934A0100001B
:100620000F900F900F900F90DF91CF910895CF937F
:10063000DF93CDB7DEB781E890E02BE0FC012083AB
:1006400088E890E02DE730E0FC01318320838FE6DD
:1006500090E022E0FC01208384E890E0FC0111821C
:1006600010828091000190910101A0910201B0914E
:1006700003018093470190934801A0934901B093EF
:100680004A018FE590E02FE530E0F90120812068F4
:10069000FC0120830000DF91CF910895CF93DF9379
:1006A000CDB7DEB781E890E0FC0110820000DF9159
:1006B000CF910895CF93DF93CDB7DEB781E08093DC
:1006C00046010000DF91CF9108951F920F92009094
:1006D0005F000F92112400905B000F922F933F93C5
:1006E0004F935F936F937F938F939F93AF93BF933A
:1006F000EF93FF93CF93DF93CDB7DEB780914701A0
:1007000090914801A0914901B0914A010197A10936
:10071000B1098093470190934801A0934901B09398
:100720004A018091470190914801A0914901B091FF
:100730004A01892B8A2B8B2B91F40E945A038091BA
:10074000000190910101A0910201B09103018093F9
:10075000470190934801A0934901B0934A010000DA
:10076000DF91CF91FF91EF91BF91AF919F918F91C9
:100770007F916F915F914F913F912F910F900092D8
:100780005B000F9000925F000F901F901895CF9321
:10079000DF9300D01F92CDB7DEB789837B836A8356
:1007A00089818A3031F48A819B81BC018DE00E946D
:1007B000C70380EC90E0FC018081882F90E080727C
:1007C0009927892BB1F386EC90E02981FC012083E5
:1007D00080E090E00F900F900F90DF91CF910895FF
:1007E000CF93DF9300D0CDB7DEB79A8389830E9481
:1007F000E20180938D0189819A818130910551F0C8
:1008000082309105A9F0892B01F581E090E09A836F
:1008100089831DC080918D01882329F082E090E0BA
:100820009A83898314C081E090E09A8389830FC002
:1008300080918D01882329F481E090E09A83898357
:1008400004C082E090E09A8389831A8219828981A8
:100850009A810F900F90DF91CF910895CF93DF93FE
:10086000CDB7DEB72A970FB6F894DEBF0FBECDBF67
:100870009A87898789859A85092E000CAA0BBB0B5C
:1008800040E050E026E030E0841B950B2817390744
:1008900008F4E2C18A5B9F4FFC010C94DC091A82C8
:1008A00019822FC01C821B8223C049815A818B81EF
:1008B0009C81489F9001499F300D589F300D112415
:1008C00089819A8161E1689FA001699F500D11247F
:1008D0008B819C81840F951F880F991F82549E4F96
:1008E000FC01318320838B819C8101969C838B83C7
:1008F0008B819C814197CCF289819A8101969A8360
:10090000898389819A8141976CF281E090E09A878E
:100910008987A8C180915101882309F4A0C182E090
:1009200090E09A8789879BC180E090E00E949309BC
:10093000DC01CB010E94480A0E94440A837090782F
:10094000992324F401978C6F9F6F019690938A01ED
:10095000809389018091890190918A01892B29F4E2
:1009600083E090E09A8789877CC18091890190918A
:100970008A01019729F484E090E09A87898771C100
:100980008091890190918A01029729F485E090E095
:100990009A87898766C18091890190918A0103971E
:1009A00009F05FC186E090E09A8789875AC180E0AC
:1009B00090E00E949309DC01CB010E94480A0E944A
:1009C000440A21E830E0B9010E94A609909303048B
:1009D0008093020480E090E00E949309DC01CB0147
:1009E0000E94480A0E94440A21E830E0B9010E94AE
:1009F000A60990938C0180938B0120910204309181
:100A0000030480918B0190918C01820F931F90932E
:100A10000104809300041092510181E090E09093D2
:100A20004E0180934D0181E090E09A8789871AC139
:100A300080E090E00E949309DC01CB010E94480A0B
:100A40000E94440A21E830E0B9010E94A60990936F
:100A500003048093020480E090E00E949309DC018B
:100A6000CB010E94480A0E94440A21E830E0B90103
:100A70000E94A60990938C0180938B01209102041F
:100A80003091030480918B0190918C0128173907D4
:100A9000A4F480910204909103049E838D8380913D
:100AA0008B0190918C0190930304809302048D81BB
:100AB0009E8190938C0180938B0120910204309150
:100AC000030480918B0190918C01A901481B590B63
:100AD000CA0190930104809300041092510181E0B7
:100AE00090E090934E0180934D0181E090E09A87D1
:100AF0008987B8C080E090E00E949309DC01CB01B7
:100B00000E94480A0E94440A21E130E0B9010E9493
:100B1000A609909303048093020480E090E00E9471
:100B20009309DC01CB010E94480A0E94440A21E19A
:100B300030E0B9010E94A60990938C0180938B014B
:100B4000409102045091030480918B0190918C019B
:100B500061E1649F9001659F300D1124820F931F06
:100B6000880F991F82549E4FFC0180819181909340
:100B70000104809300041092510181E090E0909371
:100B80004E0180934D0181E090E09A8789876AC089
:100B900080E090E00E949309DC01CB010E94480AAA
:100BA0000E94440A21E130E0B9010E94A609909315
:100BB00003048093020480E090E00E949309DC012A
:100BC000CB010E94480A0E94440A21E130E0B901A9
:100BD0000E94A60990938C0180938B01409102049E
:100BE0005091030480918B0190918C0161E1649F8D
:100BF0009001659F300D1124820F931F880F991F5C
:100C000082549E4FFC0180819181909301048093D6
:100C10000004809102049091030498878F8380914F
:100C20000004909101049093030480930204809146
:100C300002049091030490930104809300041092A5
:100C4000510181E090E090934E0180934D0181E04D
:100C500090E09A87898706C01A86198603C000002B
:100C600001C0000089859A852A960FB6F894DEBFE8
:100C70000FBECDBFDF91CF910895CF93DF9300D00A
:100C8000CDB7DEB79A83898389819A8181309105B6
:100C9000F1F08230910559F1892B09F0FDC067E12F
:100CA00071E083E090E00E94290164E271E081E15B
:100CB00090E00E94290180914B0190914C01892B79
:100CC00009F4EDC081E090E09A838983E8C08091C7
:100CD0004D0190914E01892B09F4E3C082E090E030
:100CE0009A83898310924E0110924D01DAC080914F
:100CF0000204909103044AE050E064E074E00E9432
:100D00005E0A80918B0190918C014AE050E06EEA7E
:100D100071E00E945E0A8091890190918A01892B7D
:100D2000C1F484E094E09C01F90101900020E9F70E
:100D3000CF010197821B930B8C5F9B4F20E23BE21C
:100D4000FC013183208320E230E0FC0133832283E5
:100D500059C08091890190918A010197C1F484E082
:100D600094E09C01F90101900020E9F7CF0101977F
:100D7000821B930B8C5F9B4F20E23DE2FC01318391
:100D8000208320E230E0FC01338322833BC080914A
:100D9000890190918A010297C1F484E094E09C015A
:100DA000F90101900020E9F7CF010197821B930B15
:100DB0008C5F9B4F20E23AE2FC013183208320E2EA
:100DC00030E0FC01338322831DC080918901909122
:100DD0008A010397B9F484E094E09C01F901019041
:100DE0000020E9F7CF010197821B930B8C5F9B4F8B
:100DF00020E23FE2FC013183208320E230E0FC016D
:100E0000338322836EEA71E084E094E00E94530A07
:100E100084E094E09C01F90101900020E9F7CF0102
:100E20000197821B930B8C5F9B4F20E23DE3FC01FB
:100E30003183208320E230E0FC013383228364E0AD
:100E400074E081E090E00E94290165E371E081E1B6
:100E500090E00E94290180914F01909150014AE059
:100E600050E06EE971E00E945E0A6EE971E088E18F
:100E700090E00E94290180911201882F90E04AE0C1
:100E800050E06EE871E00E945E0A6EE871E080E278
:100E900090E00E94290106C01A82198203C0000056
:100EA00001C0000089819A810F900F90DF91CF914E
:100EB0000895CF93DF9300D0CDB7DEB79A838983AF
:100EC00089819A81092E000CAA0BBB0B40E050E0EF
:100ED00026E030E0841B950B2817390708F443C03F
:100EE000835B9F4FFC010C94DC0980918D01833260
:100EF00009F03EC081E090E09A83898339C08091F7
:100F00008D018823B9F581E090E090934C018093A6
:100F10004B0181E08093510182E090E09A838983C4
:100F200029C080915101882339F583E090E09A83AC
:100F3000898322C081E08093510182E090E09A830E
:100F400089831BC080911201882329F486E090E0F8
:100F50009A83898312C081E08093510182E090E0FE
:100F60009A8389830AC01A82198207C0000005C0CB
:100F7000000003C0000001C0000089819A810F9029
:100F80000F90DF91CF9108950F931F93CF93DF932D
:100F9000CDB7DEB763970FB6F894DEBF0FBECDBFF7
:100FA00081E290E02FEFFC01208382E290E0FC01DF
:100FB000108284E290E02FEFFC01208385E290E034
:100FC000FC01108287E290E020EFFC01208388E2A0
:100FD00090E02FE0FC0120838AE290E02FEFFC01FB
:100FE00020838BE290E0FC01108288E0EDE3F1E0E9
:100FF000DE011C9601900D928A95E1F784E090E065
:101000009A8789878FEF8B878B858093520182E344
:1010100090E0A0E0B0E08093530190935401A0933E
:101020005501B09356018091530190915401A091C4
:101030005501B09156018093570190935801A093A8
:101040005901B0935A0180EF93E090935C01809333
:101050005B018B8580935D0189E190E0A0E0B0E0C9
:1010600080935E0190935F01A0936001B093610152
:1010700080915E0190915F01A0916001B09161014A
:101080008093620190936301A0936401B093650122
:101090008EE294E090936701809366018B85809344
:1010A000680182E390E0A0E0B0E080936901909352
:1010B0006A01A0936B01B0936C01809169019091DA
:1010C0006A01A0916B01B0916C0180936D019093C6
:1010D0006E01A0936F01B09370018DE396E0909341
:1010E0007201809371018B858093730182E390E09C
:1010F000A0E0B0E08093740190937501A093760115
:10110000B09377018091740190917501A09176015F
:10111000B09177018093780190937901A0937A013F
:10112000B0937B0189E597E090937D0180937C01EA
:101130008C859D85FC0181819281A381B481898305
:101140009A83AB83BC8381E090E09E838D8325C02E
:101150008D819E81880F991F9E012F5F3F4F820FC7
:10116000931F0B96FC0180819181FC0121813281CA
:101170004381548189819A81AB81BC81BC01CD01BD
:101180000E949C02DC01CB0189839A83AB83BC83E0
:101190008D819E8101969E838D832D813E818985DF
:1011A0009A8528173907A0F289819A81AB81BC8181
:1011B000BC01CD010E94E9020E9417030E94800039
:1011C00018861F82A0C08F819885880F991F9E0165
:1011D0002F5F3F4F820F931F0B96FC0180819181FF
:1011E000FC0125813681478150858F819885880F44
:1011F000991FBE016F5F7F4F860F971F0B96FC01F3
:1012000080819181FC0181819281A381B481281721
:1012100039074A075B0709F045C08F819885880F19
:10122000991F9E012F5F3F4F820F931F0B96FC016A
:10123000008111818F819885880F991F9E012F5FF2
:101240003F4F820F931F0B96FC0180819181FC011F
:10125000218532858F819885880F991FAE014F5F58
:101260005F4F840F951F0B96FC0180819181FC01DB
:101270008081082E000C990BF9010995F8018083F3
:101280008F819885880F991F9E012F5F3F4F820F96
:10129000931F0B96FC0180819181FC0115821682BF
:1012A000178210868F819885880F991F9E012F5F66
:1012B0003F4F820F931F0B96FC01608171818F81DC
:1012C0009885880F991F9E012F5F3F4F820F931FB4
:1012D0000B96FC0180819181FC012581368147813B
:1012E000508589819A81AB81BC81820F931FA41F95
:1012F000B51FFB0185839683A783B0878F8198856F
:10130000019698878F832F81388589859A8528173C
:10131000390708F458CF0000809146018823E1F393
:10132000109246014DCFFC010FB6F89460910C0469
:1013300070910D0480910E0490910F040FBE3097B0
:1013400021F06083718382839383089597FB072E36
:1013500016F4009407D077FD09D00E94E50907FC38
:1013600005D03EF4909581959F4F089570956195B5
:101370007F4F0895A1E21A2EAA1BBB1BFD010DC0D1
:10138000AA1FBB1FEE1FFF1FA217B307E407F50735
:1013900020F0A21BB30BE40BF50B661F771F881F11
:1013A000991F1A9469F760957095809590959B01A7
:1013B000AC01BD01CF010895EE0FFF1F0024001CFA
:1013C0000BBE0790F691E02D0994AA1BBB1B51E1BF
:1013D00007C0AA1FBB1FA617B70710F0A61BB70BA5
:1013E000881F991F5A95A9F780959095BC01CD014A
:1013F00008958F929F92AF92BF92CF92DF92EF9219
:10140000FF92CF93DF93EC01688179818A819B8180
:10141000611571058105910521F464E279ED8BE593
:1014200097E02DE133EF41E050E00E949E0A490130
:101430005A019B01AC01A7EAB1E40E94BD0A6B010D
:101440007C01ACEEB4EFA50194010E94CB0ADC0153
:10145000CB018C0D9D1DAE1DBF1DB7FF03C00197B5
:10146000A109B04888839983AA83BB839F77DF91C2
:10147000CF91FF90EF90DF90CF90BF90AF909F9073
:101480008F9008950C94F90983E191E00C94F90987
:10149000A0E0B0E08093130190931401A093150194
:1014A000B09316010895FB01DC010D900020E9F7CF
:1014B000119701900D920020E1F7089545325105F2
:1014C00020F4423010F00C94690AFB011082CB0129
:1014D0000895BB274A3031F4992322F4BDE2909558
:1014E00081959F4F0C94750ABB27FB015527AA27AE
:1014F000880F991FAA1FA41710F0A41B83955051A1
:10150000B9F7A05DAA3308F0A95DA193009779F718
:10151000B111B1931192CB010C948E0ADC01FC0144
:10152000672F71917723E1F7329704C07C916D9317
:1015300070836291AE17BF07C8F30895052E97FB1D
:101540001EF400940E94B50A57FD07D00E94BA0904
:1015500007FC03D04EF40C94B50A50954095309595
:1015600021953F4F4F4F5F4F08959095809570950F
:1015700061957F4F8F4F9F4F08950E94D00AA59F7E
:10158000900DB49F900DA49F800D911D112408957E
:10159000B7FF0C94BD0A0E94BD0A821B930B0895ED
:1015A000A29FB001B39FC001A39F700D811D1124A4
:1015B000911DB29F700D811D1124911D0895F89405
:0215C000FFCF5B
:1015C200010000000000000200000000C70300004C
:1015D200000003010000004D6174682D2D4D617300
:1015E200746572005072657373202320746F2070CB
:1015F2006C6179210053636F72653A200052015D7C
:0616020001680173010004
:00000001FF
