:100000000C9491000C94B0000C94B0000C94B000CF
:100010000C94B0000C94B0000C94B0000C94B000A0
:100020000C94B0000C94B0000C94B0000C94B00090
:100030000C94B0000C949F030C94B0000C94B0008E
:100040000C94B0000C94B0000C94B0000C94B00070
:100050000C94B0000C94B0000C94B0000C94B00060
:100060000C94B0000C94B0000C94B0000C94B00050
:100070000C94B0000C94B0000C94B0000C94B00040
:100080000C94B0000C94B0000C94B0002706380615
:1000900049065C064807AF078708AC08CD08EE089C
:1000A00007634236B79BD8A71A39685618AEBAAB61
:1000B000558C1D3CB7CC5763BD6DEDFD753EF617F5
:1000C0007231BF000000803F08000000BE9224494A
:1000D000123EABAAAA2ABECDCCCC4C3E000000807A
:1000E000BEABAAAAAA3E00000000BF000000803FED
:1000F0000000000000084178D3BB4387D1133D19AD
:100100000E3CC3BD4282AD2B3E68EC8276BED98FD9
:10011000E1A93E4C80EFFFBE01C4FF7F3F0000001D
:10012000000011241FBECFEFD0E4DEBFCDBF11E031
:10013000A0E0B1E0EEE7FFE100E00BBF02C00790F6
:100140000D92A039B107D9F724E0A0E9B1E001C0D0
:100150001D92A436B207E1F70E9445090C94BD0F29
:100160000C940000CF93DF93CDB7DEB781E00E94FF
:10017000D6000000DF91CF910895CF93DF93CDB7E4
:10018000DEB784E690E00E94A50188E30E94D600D5
:100190008CE00E94D60081E00E94D6008AE090E0C8
:1001A0000E94A5010000DF91CF910895CF93DF93C6
:1001B0001F92CDB7DEB789838BE290E02BE230E06F
:1001C000F90120812E7FFC01208382E290E02981C9
:1001D000FC0120838BE290E02BE230E0F9012081EA
:1001E0002460FC01208300008BE290E02BE230E0F1
:1001F000F90120812B7FFC01208382E090E00E94A6
:10020000A50100000F90DF91CF910895CF93DF9368
:100210001F92CDB7DEB789838BE290E02BE230E00E
:10022000F90120812160FC01208382E290E0298194
:10023000FC0120838BE290E02BE230E0F901208189
:100240002460FC01208300008BE290E02BE230E090
:10025000F90120812B7FFC01208381E090E00E9446
:10026000A50100000F90DF91CF910895CF93DF9308
:1002700000D000D0CDB7DEB78A837C836B830E9429
:10028000B2008A81898311C0898191E0980F998396
:100290000E948E018B819C819C012F5F3F4F3C838C
:1002A0002B83FC0180810E9406018B819C81FC01D3
:1002B0008081882349F700000F900F900F900F90D6
:1002C000DF91CF910895CF93DF9300D000D0CDB7C9
:1002D000DEB78A837C836B838A81898311C089819D
:1002E00091E0980F99830E948E018B819C819C01E3
:1002F0002F5F3F4F3C832B83FC0180810E940601CE
:100300008B819C81FC018081882349F700000F903C
:100310000F900F900F90DF91CF910895CF93DF93BF
:100320001F92CDB7DEB789838981813128F4898115
:1003300081580E94D60004C0898181550E94D60050
:1003400000000F90DF91CF910895CF93DF9300D0FD
:1003500000D000D0CDB7DEB79E838D831A8219827C
:1003600013C01C821B8206C000008B819C810196F9
:100370009C838B838B819C8187309340ACF38981F4
:100380009A8101969A83898329813A818D819E8100
:100390002817390734F3000026960FB6F894DEBF0D
:1003A0000FBECDBFDF91CF910895CF93DF9300D0E3
:1003B0001F92CDB7DEB789836A834B838B818823F5
:1003C00071F08A81282F30E081E090E002C0880F30
:1003D000991F2A95E2F7982F8981892B0EC08A816F
:1003E000282F30E081E090E002C0880F991F2A9505
:1003F000E2F7982F9095898189230F900F900F90A5
:10040000DF91CF910895CF93DF9300D0CDB7DEB7C2
:1004100089836A838A81282F30E081E090E002C0DE
:10042000880F991F2A95E2F7982F898189230F90C9
:100430000F90DF91CF9108950F931F93CF93DF9388
:10044000CDB7DEB708E210E040E064E08FEF0E9435
:10045000D501F8018083000086E290E0FC018081F4
:10046000809560E00E940302882311F081E399C027
:1004700086E290E0FC018081809561E00E940302A9
:10048000882311F084E38DC086E290E0FC01808136
:10049000809562E00E940302882311F087E381C007
:1004A00086E290E0FC018081809563E00E94030277
:1004B000882311F08AE275C008E210E040E065E0B0
:1004C0008FEF0E94D501F8018083000086E290E062
:1004D000FC018081809560E00E940302882311F076
:1004E00082E35FC086E290E0FC018081809561E05C
:1004F0000E940302882311F085E353C086E290E056
:10050000FC018081809562E00E940302882311F043
:1005100088E347C086E290E0FC018081809563E03B
:100520000E940302882311F080E33BC008E210E040
:1005300040E066E08FEF0E94D501F8018083000063
:1005400086E290E0FC018081809560E00E940302D9
:10055000882311F083E325C086E290E0FC018081CE
:10056000809561E00E940302882311F086E319C0A0
:1005700086E290E0FC018081809562E00E940302A7
:10058000882311F089E30DC086E290E0FC018081B0
:10059000809563E00E940302882311F083E201C08A
:1005A00080E0DF91CF911F910F910895CF93DF935A
:1005B000CDB7DEB72C970FB6F894DEBF0FBECDBF18
:1005C0006D837E838F83988729873A874B875C87E3
:1005D0008D819E81AF81B88529853A854B855C8563
:1005E000BC01CD010E94030BDC01CB0189839A83FE
:1005F000AB83BC8389819A81AB81BC81892B8A2B97
:100600008B2B29F489859A85AB85BC8511C089859A
:100610009A85AB85BC858D839E83AF83B88789819E
:100620009A81AB81BC8189879A87AB87BC87D0CF01
:10063000BC01CD012C960FB6F894DEBF0FBECDBF26
:10064000DF91CF910895CF93DF9300D000D0CDB745
:10065000DEB769837A838B839C8389819A81AB819E
:10066000BC818093000190930101A0930201B0939B
:1006700003018091000190910101A0910201B091CC
:1006800003018093910190939201A0939301B09301
:10069000940100000F900F900F900F90DF91CF9179
:1006A0000895CF93DF93CDB7DEB781E890E02BE0DC
:1006B000FC01208388E890E02DE730E0FC013183E5
:1006C00020838FE690E022E0FC01208384E890E024
:1006D000FC01118210828091000190910101A09192
:1006E0000201B09103018093910190939201A09334
:1006F0009301B09394018FE590E02FE530E0F9018C
:1007000020812068FC0120830000DF91CF910895B3
:10071000CF93DF93CDB7DEB781E890E0FC01108284
:100720000000DF91CF910895CF93DF93CDB7DEB76F
:1007300081E0809390010000DF91CF9108951F9296
:100740000F9200905F000F92112400905B000F92B7
:100750002F933F934F935F936F937F938F939F93C9
:10076000AF93BF93EF93FF93CF93DF93CDB7DEB7F4
:100770008091910190919201A0919301B091940187
:100780000197A109B1098093910190939201A093DF
:100790009301B09394018091910190919201A09165
:1007A0009301B0919401892B8A2B8B2B91F40E9499
:1007B00094038091000190910101A0910201B091F8
:1007C00003018093910190939201A0939301B093C0
:1007D00094010000DF91CF91FF91EF91BF91AF9114
:1007E0009F918F917F916F915F914F913F912F9149
:1007F0000F9000925B000F9000925F000F901F908F
:100800001895CF93DF9300D01F92CDB7DEB78983C1
:100810007B836A8389818A3031F48A819B81BC0120
:100820008DE00E94010480EC90E0FC018081882F23
:1008300090E080729927892BB1F386EC90E02981B2
:10084000FC01208380E090E00F900F900F90DF91EB
:10085000CF910895CF93DF9300D0CDB7DEB79A83C1
:1008600089830E941C028093D70189819A81009715
:1008700019F00197D1F032C08091D701833259F439
:1008800081E090E09A838983809198019091990109
:100890000E94260F25C080919801909199010196A0
:1008A00090939901809398011BC08091D701882370
:1008B00059F482E090E09A83898380919A01909123
:1008C0009B010E94260F0CC080919A0190919B0180
:1008D000019690939B0180939A0102C01A8219821B
:1008E00089819A810F900F90DF91CF910895CF93D6
:1008F000DF93CDB7DEB72A970FB6F894DEBF0FBEF1
:10090000CDBF9A87898789859A858130910509F4B9
:1009100049C0823091051CF4892B49F064C18230B2
:10092000910509F449C0039709F450C05CC11A82CB
:1009300019822FC01C821B8223C049815A818B815E
:100940009C81489F9001499F300D589F300D112484
:1009500089819A8161E1689FA001699F500D1124EE
:100960008B819C81840F951F880F991F805F9D4FFD
:10097000FC01318320838B819C8101969C838B8336
:100980008B819C814197CCF289819A8101969A83CF
:10099000898389819A8141976CF282E090E09A87FD
:1009A000898727C180911201882309F41FC183E040
:1009B00090E09A8789871AC180911201882309F4EF
:1009C00017C183E090E09A87898712C10E94220FA5
:1009D00083709078992324F401978C6F9F6F019610
:1009E0009093D4018093D3018091D3019091D4014D
:1009F0008130910599F1823091051CF4892B49F0E1
:100A0000EBC08230910509F46FC0039709F49EC0D2
:100A1000E3C00E94220F21E830E0B9010E94EF0AF2
:100A200090935704809356040E94220F21E830E0EF
:100A3000B9010E94EF0A9093D6018093D5012091CD
:100A40005604309157048091D5019091D601820FC0
:100A5000931F9093530480935204BEC00E94220FB0
:100A600021E830E0B9010E94EF0A90935704809387
:100A700056040E94220F21E830E0B9010E94EF0ADB
:100A80009093D6018093D50120915604309157045C
:100A90008091D5019091D60128173907A4F480914F
:100AA0005604909157049E838D838091D501909137
:100AB000D60190935704809356048D819E81909324
:100AC000D6018093D501209156043091570480912E
:100AD000D5019091D601A901481B590BCA019093E9
:100AE00053048093520478C00E94220F21E130E029
:100AF000B9010E94EF0A90935704809356040E9414
:100B0000220F21E130E0B9010E94EF0A9093D60153
:100B10008093D50140915604509157048091D5019E
:100B20009091D60161E1649F9001659F300D112481
:100B3000820F931F880F991F805F9D4FFC0180815A
:100B40009181909353048093520446C00E94220FD7
:100B500021E130E0B9010E94EF0A9093570480939D
:100B600056040E94220F21E130E0B9010E94EF0AF1
:100B70009093D6018093D50140915604509157042B
:100B80008091D5019091D60161E1649F9001659FAC
:100B9000300D1124820F931F880F991F805F9D4F86
:100BA000FC01808191819093530480935204809141
:100BB00056049091570498878F83809152049091A6
:100BC000530490935704809356048F819885909393
:100BD00053048093520400001092120182E090E0CE
:100BE0009A87898706C01A86198603C0000001C04B
:100BF000000089859A852A960FB6F894DEBF0FBE4D
:100C0000CDBFDF91CF9108950F931F93CF93DF93C3
:100C1000CDB7DEB727970FB6F894DEBF0FBECDBFB6
:100C20009F838E838E819F81092E000CAA0BBB0BA4
:100C300040E050E029E030E0841B950B281739078D
:100C400008F408C38A5B9F4FFC010C94250B68E1F4
:100C500071E081E090E00E94630169E271E081E16E
:100C600090E00E94630181E090E09F838E8300C347
:100C70001092A00110929F0183E080931301809154
:100C8000D701833209F0E9C282E090E09F838E832E
:100C9000E4C28091D701882309F0E1C281E090E0AD
:100CA000909396018093950181E08093120183E0F7
:100CB00090E09F838E83D3C280911201882309F034
:100CC000D0C280915604909157044AE050E068E504
:100CD00074E00E943C0F8091D5019091D6014AE0CA
:100CE00050E068EF71E00E943C0F8091D301909139
:100CF000D401892BC1F488E594E09C01F9010190AD
:100D00000020E9F7CF010197821B930B885A9B4F74
:100D100020E23BE2FC013183208320E230E0FC0151
:100D20003383228359C08091D3019091D4010197DC
:100D3000C1F488E594E09C01F90101900020E9F7F5
:100D4000CF010197821B930B885A9B4F20E23DE213
:100D5000FC013183208320E230E0FC0133832283D5
:100D60003BC08091D3019091D4010297C1F488E5F2
:100D700094E09C01F90101900020E9F7CF0101976F
:100D8000821B930B885A9B4F20E23AE2FC0131838D
:100D9000208320E230E0FC01338322831DC0809158
:100DA000D3019091D4010397B9F488E594E09C01B4
:100DB000F90101900020E9F7CF010197821B930B05
:100DC000885A9B4F20E23FE2FC013183208320E2DE
:100DD00030E0FC013383228368EF71E088E594E022
:100DE0000E94310F88E594E09C01F90101900020F8
:100DF000E9F7CF010197821B930B885A9B4F20E2A2
:100E00003DE3FC013183208320E230E0FC013383A9
:100E100022830E94B2008CE090E09093550480936E
:100E2000540468E574E081E090E00E9463016AE3A5
:100E300071E081E190E00E94630180919F019091B7
:100E4000A0014AE050E068EE71E00E943C0F68EEBD
:100E500071E088E190E00E94630180911301882F86
:100E600090E04AE050E068ED71E00E943C0F68EDD0
:100E700071E080E290E00E946301809154049091BF
:100E800055048093A20184E090E09F838E83E9C1A2
:100E90008091D701882309F4E6C18091D70183327C
:100EA00021F481E08093970147C08091D7018A3275
:100EB00011F58091A101882371F08091A1018150E9
:100EC0008093A1018091A101882F90E084569E4FCC
:100ED00020E2FC0120838091A20181508093A20135
:100EE0008091540490915504982F8091A201890F0C
:100EF0000E948E0121C08091A1018330E8F480918D
:100F0000A10191E0980F9093A101882F90E020918A
:100F1000D70184569E4FFC0120838091A2018F5FF0
:100F20008093A2018091540490915504982F809150
:100F3000A201890F0E948E01809154049091550462
:100F40006CE971E00E94630162E471E08FE090E07F
:100F50000E94630185E090E09F838E8384C180912D
:100F6000D701882309F081C180919701882309F472
:100F7000C9C01092A4011092A301198284E68A8349
:100F800082E08B831AC08B81082E000C990B84564B
:100F90009E4FFC018081803251F08B81082E000C25
:100FA000990B84569E4FFC018081882319F4898116
:100FB0008F5F89838B8181508B838B8188231CF782
:100FC0008981833039F48FEF9FEF9093A401809350
:100FD000A3016BC08A81082F10E08981882F90E0DF
:100FE000A0E0B0E0BC01CD010E94E50BDC01CB012B
:100FF0009C01AD0160E070E080E291E40E94730C1E
:10100000DC01CB0120E030E040E05FE3BC01CD013A
:101010000E94430BDC01CB01BC01CD010E94AF0B50
:10102000DC01CB019C01C801B9010E94EF0ACB0190
:101030008A831D821C8235C08C819D8184569E4F7F
:10104000FC0180818823F9F08C819D8184569E4F1C
:10105000FC018081882F90E0AC01405351098A81C6
:10106000882F90E0489F9001499F300D589F300D88
:1010700011248091A3019091A401820F931F90935A
:10108000A4018093A3019A818DEC989F812D112456
:101090008695869586958A838C819D8101969D8310
:1010A0008C838C819D8103973CF22091A301309128
:1010B000A40180915204909153042817390729F410
:1010C00086E090E09F838E8304C087E090E09F835A
:1010D0008E8380915204909153044AE050E068E07E
:1010E00072E00E943C0F1092970110929C011092A6
:1010F0009D0110929E011092A1011092A6011092E2
:10110000A501B3C084E090E09F838E83AEC00E94AF
:10111000B20065E471E083E090E00E94630162E563
:1011200071E083E190E00E94630168E072E08DE18C
:1011300090E00E94630180919F019091A00101962F
:101140009093A00180939F0181E08093120188E039
:1011500090E09F838E838CC00E94B2006DE571E0A9
:1011600082E090E00E94630162E571E083E190E03B
:101170000E94630168E072E08DE190E00E946301EB
:101180008091130181508093130181E080931201BB
:1011900088E090E09F838E836BC08091A501909141
:1011A000A601C2969093A6018093A5018091A50106
:1011B0009091A601803D974009F059C0809113019C
:1011C000882329F489E090E09F838E8304C083E024
:1011D00090E09F838E830E94B20049C00E94B200BB
:1011E0006CE671E081E090E00E94630180919F01D4
:1011F0009091A0014AE050E068EE71E00E943C0F3F
:1012000088EE91E09C01F90101900020E9F7CF01FF
:101210000197821B930B88519E4F26E0E5E7F1E092
:10122000DC0101900D922A95E1F768EE71E089E00A
:1012300090E00E9463016BE771E082E190E00E9420
:101240006301109296011092950181E090E09F83D6
:101250008E830EC01F821E820BC0000009C00000DA
:1012600007C0000005C0000003C0000001C000006E
:101270008E819F8127960FB6F894DEBF0FBECDBF3B
:10128000DF91CF911F910F9108950F931F93CF93EB
:10129000DF93CDB7DEB761970FB6F894DEBF0FBE10
:1012A000CDBF81E290E02FEFFC01208382E290E04D
:1012B000FC01108284E290E02FEFFC01208385E2A4
:1012C00090E0FC01108287E290E020EFFC01208397
:1012D00088E290E02FE0FC0120838AE290E02FEF8B
:1012E000FC0120838BE290E0FC01108286E0EAE8BA
:1012F000F1E0DE011C9601900D928A95E1F783E002
:1013000090E09A8789878FEF8B878B858093A701E1
:1013100089E190E0A0E0B0E08093A8019093A9015A
:10132000A093AA01B093AB018091A8019091A9016B
:10133000A091AA01B091AB018093AC019093AD0153
:10134000A093AE01B093AF0187E794E09093B10111
:101350008093B0018B858093B20182E390E0A0E09E
:10136000B0E08093B3019093B401A093B501B09322
:10137000B6018091B3019091B401A091B501B091F3
:10138000B6018093B7019093B801A093B901B093CF
:10139000BA0184E096E09093BC018093BB018B85F9
:1013A0008093BD0181E090E0A0E0B0E08093BE01B9
:1013B0009093BF01A093C001B093C1018091BE0181
:1013C0009091BF01A091C001B091C1018093C20171
:1013D0009093C301A093C401B093C5018AE294E045
:1013E0009093C7018093C6018C859D85FC01818106
:1013F0009281A381B48189839A83AB83BC8381E08A
:1014000090E09E838D8325C08D819E81880F991FDA
:101410009E012F5F3F4F820F931F0B96FC0180812F
:101420009181FC01218132814381548189819A819A
:10143000AB81BC81BC01CD010E94D602DC01CB0195
:1014400089839A83AB83BC838D819E8101969E8321
:101450008D832D813E8189859A8528173907A0F2D1
:1014600089819A81AB81BC81BC01CD010E9423039B
:101470000E9451030E94BD0018861F82A0C08F8168
:101480009885880F991F9E012F5F3F4F820F931FF2
:101490000B96FC0180819181FC0125813681478179
:1014A00050858F819885880F991FBE016F5F7F4F90
:1014B000860F971F0B96FC0180819181FC01818131
:1014C0009281A381B481281739074A075B0709F085
:1014D00045C08F819885880F991F9E012F5F3F4FD0
:1014E000820F931F0B96FC01008111818F819885DB
:1014F000880F991F9E012F5F3F4F820F931F0B96FE
:10150000FC0180819181FC01218532858F81988544
:10151000880F991FAE014F5F5F4F840F951F0B9689
:10152000FC0180819181FC018081082E000C990BC7
:10153000F9010995F80180838F819885880F991F9B
:101540009E012F5F3F4F820F931F0B96FC018081FE
:101550009181FC0115821682178210868F819885F1
:10156000880F991F9E012F5F3F4F820F931F0B968D
:10157000FC01608171818F819885880F991F9E0180
:101580002F5F3F4F820F931F0B96FC01808191814B
:10159000FC01258136814781508589819A81AB8103
:1015A000BC81820F931FA41FB51FFB018583968307
:1015B000A783B0878F819885019698878F832F8125
:1015C000388589859A852817390708F458CF00008F
:1015D000809190018823E1F3109290014DCF97FB09
:1015E000072E16F4009407D077FD09D00E942E0B29
:1015F00007FC05D03EF4909581959F4F0895709516
:1016000061957F4F0895A1E21A2EAA1BBB1BFD0115
:101610000DC0AA1FBB1FEE1FFF1FA217B307E407D1
:10162000F50720F0A21BB30BE40BF50B661F771F29
:10163000881F991F1A9469F7609570958095909509
:101640009B01AC01BD01CF010895EE0FFF1F0024E7
:10165000001C0BBE0790F691E02D0994AA1BBB1B42
:1016600051E107C0AA1FBB1FA617B70710F0A61BA2
:10167000B70B881F991F5A95A9F780959095BC01C3
:10168000CD0108955058BB27AA270E945A0B0C94ED
:10169000390C0E942B0C38F00E94320C20F039F4E7
:1016A0009F3F19F426F40C94280C0EF4E095E7FB08
:1016B0000C94220CE92F0E944A0C58F3BA176207C7
:1016C00073078407950720F079F4A6F50C946C0C49
:1016D0000EF4E0950B2EBA2FA02D0B01B90190014D
:1016E0000C01CA01A0011124FF27591B99F0593F91
:1016F00050F4503E68F11A16F040A22F232F342FD9
:101700004427585FF3CF469537952795A795F04026
:101710005395C9F77EF41F16BA0B620B730B840B3B
:10172000BAF09150A1F0FF0FBB1F661F771F881FF3
:10173000C2F70EC0BA0F621F731F841F48F487954B
:1017400077956795B795F7959E3F08F0B0CF93953D
:10175000880F08F09927EE0F9795879508950E94B6
:10176000B60B6894B1110C946D0C08950E94520C44
:1017700088F09F5798F0B92F9927B751B0F0E1F052
:10178000660F771F881F991F1AF0BA95C9F714C002
:10179000B13091F00E946C0CB1E008950C946C0C87
:1017A000672F782F8827B85F39F0B93FCCF386953B
:1017B00077956795B395D9F73EF490958095709598
:1017C00061957F4F8F4F9F4F0895E89409C097FB15
:1017D0003EF490958095709561957F4F8F4F9F4F08
:1017E0009923A9F0F92F96E9BB279395F69587954C
:1017F00077956795B795F111F8CFFAF4BB0F11F40F
:1018000060FF1BC06F5F7F4F8F4F9F4F16C08823B5
:1018100011F096E911C0772321F09EE8872F762FEB
:1018200005C0662371F096E8862F70E060E02AF02C
:101830009A95660F771F881FDAF7880F9695879518
:1018400097F9089597F99F6780E870E060E0089540
:101850009FEF80EC089500240A94161617061806C8
:101860000906089500240A941216130614060506A4
:101870000895092E0394000C11F4882352F0BB0F35
:1018800040F4BF2B11F460FF04C06F5F7F4F8F4F98
:101890009F4F089557FD9058440F551F59F05F3FD3
:1018A00071F04795880F97FB991F61F09F3F79F082
:1018B00087950895121613061406551FF2CF469504
:1018C000F1DF08C0161617061806991FF1CF869586
:1018D0007105610508940895E894BB27662777276A
:1018E000CB0197F90895FA01EE0FFF1F30962105FD
:1018F0003105A1F16115710561F48038BFE39B07E3
:1019000049F168949038810561F08038BFEF9B07FA
:1019100041F099234AF5FF3FE1053105210519F111
:10192000E8940894E795D901AA2329F4AB2FBE2F98
:10193000F85FD0F310C0FF5F70F4A695E0F7F739B9
:1019400050F019F0FF3A38F49F779F930DD00F9025
:1019500007FC9058089546F00C94280C60E070E065
:1019600080E89FE308954FE79F775F934F933F93FE
:101970002F930E946E0D2F913F914F915F910E9486
:10198000EA0D0C94CB0C29F416F00C94220C0C9458
:101990006C0C0C94280C0E94520CA8F39638A0F7FB
:1019A00007F80F92E8942BE33AEA48EB5FE70E94CE
:1019B000000E0F920F920F924DB75EB70F920E94DA
:1019C000B60DE0EAF0E00E94FD0C4F915F91EF91BF
:1019D000FF91E595EE1FFF1F49F0FE57E068442791
:1019E000EE0F441FFA95E1F74195550B0E94300D1B
:1019F0000F9007FE0C94240D0895DF93CF931F934F
:101A00000F93FF92EF92DF927B018C01689406C0E6
:101A1000DA2EEF010E94FD0DFE01E894A5912591BB
:101A2000359145915591A6F3EF010E945A0BFE01A5
:101A30009701A801DA9469F7DF90EF90FF900F917A
:101A40001F91CF91DF9108959B01AC0160E070E0A0
:101A500080E89FE30C94570E0C94220C0C94C90E52
:101A60000E94520CD8F39923C9F3940F511DA3F38C
:101A70009150504094F059F0882332F0660F771F50
:101A8000881F91505040C1F79E3F51052CF7880F99
:101A9000911D9695879597F908955F3FACF0983E14
:101AA0009CF0BB27869577956795B79508F4B1604C
:101AB0009395C1F7BB0F58F711F460FFE8CF6F5F44
:101AC0007F4F8F4F9F4FE3CF0C946D0C16F00C940B
:101AD000C90E0C94280C68940C94220C0E94520C91
:101AE000A8F39923C1F3AEF3DF93CF931F930F9322
:101AF000FF92C92FDD2788232AF02197660F771FD1
:101B0000881FDAF720E030E040E85FEB9FE3883998
:101B100020F0803E38F021968F770E94430BE8EC4E
:101B2000F0E004C00E94430BE5EFF0E00E94FD0CE2
:101B30008B01BE01EC01FB2E6F5771097595771F64
:101B4000880B990B0E94E70B28E132E741E35FE342
:101B50000E94FD0DAF2D9801AE01FF900F911F91D6
:101B6000CF91DF910E945A0B0C94390CFA01DC01E1
:101B7000AA0FBB1F9B01AC01BF5728F422273327B4
:101B80004427507820C0B75190F4AB2F00244695DD
:101B900037952795011CA395D2F3002071F0220FF1
:101BA000331F441FB395DAF30ED00C94420B61300F
:101BB0007105A0E88A07B94630F49B01AC0166279D
:101BC000772788279078309621F0208331834283CD
:101BD000538308950E94FD0D0C94390C0E942B0C28
:101BE00038F00E94320C20F0952311F00C94220C56
:101BF0000C94280C11240C946D0C0E944A0C70F368
:101C0000959FC1F3950F50E0551F629FF001729FA1
:101C1000BB27F00DB11D639FAA27F00DB11DAA1FB0
:101C2000649F6627B00DA11D661F829F2227B00DFD
:101C3000A11D621F739FB00DA11D621F839FA00D88
:101C4000611D221F749F3327A00D611D231F849FD8
:101C5000600D211D822F762F6A2F11249F5750402F
:101C60009AF0F1F088234AF0EE0FFF1FBB1F661FAA
:101C7000771F881F91505040A9F79E3F510580F073
:101C80000C94220C0C946D0C5F3FE4F3983ED4F35B
:101C9000869577956795B795F795E7959F5FC1F717
:101CA000FE2B880F911D9695879597F908950E94B0
:101CB0006B0E0C94390C0E94320C58F00E942B0CC5
:101CC00040F029F45F3F29F00C94220C51110C9440
:101CD0006D0C0C94280C0E944A0C68F39923B1F304
:101CE000552391F3951B550BBB27AA276217730742
:101CF000840738F09F5F5F4F220F331F441FAA1FD6
:101D0000A9F335D00E2E3AF0E0E832D09150504091
:101D1000E695001CCAF72BD0FE2F29D0660F771F3F
:101D2000881FBB1F261737074807AB07B0E809F025
:101D3000BB0B802DBF01FF2793585F4F3AF09E3FAA
:101D4000510578F00C94220C0C946D0C5F3FE4F379
:101D5000983ED4F3869577956795B795F7959F5FED
:101D6000C9F7880F911D9695879597F90895E1E039
:101D7000660F771F881FBB1F621773078407BA0798
:101D800020F0621B730B840BBA0BEE1F88F7E095F3
:101D900008959F3F31F0915020F48795779567958E
:101DA000B795880F911D9695879597F908958F920D
:101DB0009F92AF92BF92CF92DF92EF92FF92CF931A
:101DC000DF93EC01688179818A819B8161157105BE
:101DD0008105910521F464E279ED8BE597E02DE131
:101DE00033EF41E050E00E947C0F49015A019B0112
:101DF000AC01A7EAB1E40E949B0F6B017C01ACEE41
:101E0000B4EFA50194010E94A90FDC01CB018C0D58
:101E10009D1DAE1DBF1DB7FF03C00197A109B048AE
:101E200088839983AA83BB839F77DF91CF91FF90AB
:101E3000EF90DF90CF90BF90AF909F908F900895DC
:101E40000C94D70E84E191E00C94D70EA0E0B0E0A2
:101E50008093140190931501A0931601B09317017C
:101E60000895FB01DC010D900020E9F71197019026
:101E70000D920020E1F708954532510520F44230DB
:101E800010F00C94470FFB011082CB010895BB2783
:101E90004A3031F4992322F4BDE2909581959F4F09
:101EA0000C94530FBB27FB015527AA27880F991FB6
:101EB000AA1FA41710F0A41B83955051B9F7A05D79
:101EC000AA3308F0A95DA193009779F7B111B193F6
:101ED0001192CB010C946C0FDC01FC01672F719106
:101EE0007723E1F7329704C07C916D937083629100
:101EF000AE17BF07C8F30895052E97FB1EF4009494
:101F00000E94930F57FD07D00E94030B07FC03D0DC
:101F10004EF40C94930F50954095309521953F4F7A
:101F20004F4F5F4F089590958095709561957F4FC5
:101F30008F4F9F4F08950E94AE0FA59F900DB49FA5
:101F4000900DA49F800D911D11240895B7FF0C944E
:101F50009B0F0E949B0F821B930B0895A29FB001C1
:101F6000B39FC001A39F700D811D1124911DB29FCD
:0E1F7000700D811D1124911D0895F894FFCF6E
:101F7E00010000000000000200000000010400004B
:101F8E0000000103010000002A2A4D6174682D2D06
:101F9E004D61737465722A2A005072657373202323
:101FAE0020746F20706C6179210053636F72653AF3
:101FBE002000202000436F72726563742121203A45
:101FCE002900536F6C7574696F6E3A2000496E6309
:101FDE006F72726563742E2E203A280046494E4960
:101FEE005348212000207074732100526573746170
:101FFE0072742077697468202300BD01A701B201B5
:00000001FF
