:100000000C9493000C94B2000C94B2000C94B200C7
:100010000C94B2000C94B2000C94B2000C94B20098
:100020000C94B2000C94B2000C94B2000C94B20088
:100030000C94B2000C94A1030C94B2000C94B20086
:100040000C94B2000C94B2000C94B2000C94B20068
:100050000C94B2000C94B2000C94B2000C94B20058
:100060000C94B2000C94B2000C94B2000C94B20048
:100070000C94B2000C94B2000C94B2000C94B20038
:100080000C94B2000C94B2000C94B200200731071B
:10009000420755074108A7088A09AF09FD091E0A4A
:1000A000490AAC0A07634236B79BD8A71A39685683
:1000B00018AEBAAB558C1D3CB7CC5763BD6DEDFD8A
:1000C000753EF6177231BF000000803F0800000047
:1000D000BE922449123EABAAAA2ABECDCCCC4C3E3D
:1000E00000000080BEABAAAAAA3E00000000BF002C
:1000F0000000803F0000000000084178D3BB438728
:10010000D1133D190E3CC3BD4282AD2B3E68EC823B
:1001100076BED98FE1A93E4C80EFFFBE01C4FF7FC0
:100120003F000000000011241FBECFEFD0E4DEBF6F
:10013000CDBF11E0A0E0B1E0E6EAF3E200E00BBFE2
:1001400002C007900D92AA3CB107D9F724E0AAECAF
:10015000B1E001C01D92A53AB207E1F70E94FF0A83
:100160000C94D1110C940000CF93DF93CDB7DEB780
:1001700081E00E94D8000000DF91CF910895CF93D5
:10018000DF93CDB7DEB784E690E00E94A70188E355
:100190000E94D8008CE00E94D80081E00E94D80024
:1001A0008AE090E00E94A7010000DF91CF910895BE
:1001B000CF93DF931F92CDB7DEB789838BE290E0B8
:1001C0002BE230E0F90120812E7FFC01208382E2C6
:1001D00090E02981FC0120838BE290E02BE230E06B
:1001E000F90120812460FC01208300008BE290E073
:1001F0002BE230E0F90120812B7FFC01208382E09B
:1002000090E00E94A70100000F90DF91CF91089528
:10021000CF93DF931F92CDB7DEB789838BE290E057
:100220002BE230E0F90120812160FC01208382E291
:1002300090E02981FC0120838BE290E02BE230E00A
:10024000F90120812460FC01208300008BE290E012
:100250002BE230E0F90120812B7FFC01208381E03B
:1002600090E00E94A70100000F90DF91CF910895C8
:10027000CF93DF9300D000D0CDB7DEB78A837C83E5
:100280006B830E94B4008A81898311C0898191E0C7
:10029000980F99830E9490018B819C819C012F5F14
:1002A0003F4F3C832B83FC0180810E9408018B819E
:1002B0009C81FC018081882349F700000F900F90FA
:1002C0000F900F90DF91CF910895CF93DF9300D0DF
:1002D00000D0CDB7DEB78A837C836B838A81898324
:1002E00011C0898191E0980F99830E9490018B81C0
:1002F0009C819C012F5F3F4F3C832B83FC018081BD
:100300000E9408018B819C81FC018081882349F730
:1003100000000F900F900F900F90DF91CF910895F4
:10032000CF93DF931F92CDB7DEB789838981813167
:1003300028F4898181580E94D80004C089818155A0
:100340000E94D80000000F90DF91CF910895CF93C5
:10035000DF9300D000D000D0CDB7DEB79E838D8371
:100360001A82198213C01C821B8206C000008B8176
:100370009C8101969C838B838B819C8187309340E9
:10038000ACF389819A8101969A83898329813A8184
:100390008D819E812817390734F3000026960FB609
:1003A000F894DEBF0FBECDBFDF91CF910895CF93FC
:1003B000DF9300D01F92CDB7DEB789836A834B836A
:1003C0008B81882371F08A81282F30E081E090E0D2
:1003D00002C0880F991F2A95E2F7982F8981892BEF
:1003E0000EC08A81282F30E081E090E002C0880FA3
:1003F000991F2A95E2F7982F9095898189230F906C
:100400000F900F90DF91CF910895CF93DF9300D09D
:10041000CDB7DEB789836A838A81282F30E081E0F7
:1004200090E002C0880F991F2A95E2F7982F8981E2
:1004300089230F900F90DF91CF9108950F931F9311
:10044000CF93DF93CDB7DEB708E210E040E064E081
:100450008FEF0E94D701F8018083000086E290E0D0
:10046000FC018081809560E00E940502882311F0E4
:1004700081E399C086E290E0FC018081809561E093
:100480000E940502882311F084E38DC086E290E08B
:10049000FC018081809562E00E940502882311F0B2
:1004A00087E381C086E290E0FC018081809563E073
:1004B0000E940502882311F08AE275C008E210E06C
:1004C00040E065E08FEF0E94D701F80180830000D3
:1004D00086E290E0FC018081809560E00E94050248
:1004E000882311F082E35FC086E290E0FC01808106
:1004F000809561E00E940502882311F085E353C0D6
:1005000086E290E0FC018081809562E00E94050215
:10051000882311F088E347C086E290E0FC018081E7
:10052000809563E00E940502882311F080E33BC0C0
:1005300008E210E040E066E08FEF0E94D701F8018A
:100540008083000086E290E0FC018081809560E07D
:100550000E940502882311F083E325C086E290E023
:10056000FC018081809561E00E940502882311F0E2
:1005700086E319C086E290E0FC018081809562E00C
:100580000E940502882311F089E30DC086E290E005
:10059000FC018081809563E00E940502882311F0B0
:1005A00083E201C080E0DF91CF911F910F91089508
:1005B000CF93DF93CDB7DEB72C970FB6F894DEBF9D
:1005C0000FBECDBF6D837E838F83988729873A873F
:1005D0004B875C878D819E81AF81B88529853A855F
:1005E0004B855C85BC01CD010E94E90CDC01CB018F
:1005F00089839A83AB83BC8389819A81AB81BC81D7
:10060000892B8A2B8B2B29F489859A85AB85BC8510
:1006100011C089859A85AB85BC858D839E83AF8308
:10062000B88789819A81AB81BC8189879A87AB879A
:10063000BC87D0CFBC01CD012C960FB6F894DEBF9D
:100640000FBECDBFDF91CF910895CF93DF9300D040
:1006500000D0CDB7DEB769837A838B839C83898191
:100660009A81AB81BC818093000190930101A0939A
:100670000201B09303018091000190910101A091CA
:100680000201B09103018093CB019093CC01A09320
:10069000CD01B093CE0100000F900F900F900F90FE
:1006A000DF91CF910895CF93DF93CDB7DEB781E887
:1006B00090E02BE0FC01208388E890E02DE730E01B
:1006C000FC01318320838FE690E022E0FC0120834F
:1006D00084E890E0FC0111821082809100019091E9
:1006E0000101A0910201B09103018093CB0190938D
:1006F000CC01A093CD01B093CE018FE590E02FE522
:1007000030E0F90120812068FC0120830000DF91A6
:10071000CF910895CF93DF93CDB7DEB781E890E016
:10072000FC0110820000DF91CF910895CF93DF93F9
:10073000CDB7DEB781E08093CA010000DF91CF9191
:1007400008951F920F9200905F000F921124009065
:100750005B000F922F933F934F935F936F937F9321
:100760008F939F93AF93BF93EF93FF93CF93DF93B9
:10077000CDB7DEB78091CB019091CC01A091CD0196
:10078000B091CE010197A109B1098093CB0190935B
:10079000CC01A093CD01B093CE018091CB0190917B
:1007A000CC01A091CD01B091CE01892B8A2B8B2B4E
:1007B00091F40E9496038091000190910101A09113
:1007C0000201B09103018093CB019093CC01A093DF
:1007D000CD01B093CE010000DF91CF91FF91EF9159
:1007E000BF91AF919F918F917F916F915F914F9149
:1007F0003F912F910F9000925B000F9000925F004D
:100800000F901F901895CF93DF9300D01F92CDB714
:10081000DEB789837B836A8389818A3031F48A8158
:100820009B81BC018DE00E94030480EC90E0FC0100
:100830008081882F90E080729927892BB1F386EC14
:1008400090E02981FC01208380E090E00F900F90E0
:100850000F90DF91CF9108950F931F93CF93DF9364
:1008600000D000D0CDB7DEB769837A838B839C83B9
:100870008091E4019091E501A091E601B091E7013A
:100880009C01AD0169817A818B819C810E94950DCB
:10089000882309F477C020E030E0A90169817A81DA
:1008A0008B819C810E94950D882351F481E990E011
:1008B00021E930E0F90120812870FC01208309C082
:1008C00081E990E021E930E0F90120812360FC0119
:1008D000208328E539E344E75FE369817A818B81EE
:1008E0009C810E94950D882344F488E990E02FEFC5
:1008F0003FEFFC013183208334C020E034E244EF39
:1009000056E469817A818B819C810E94F40E1816CD
:1009100034F488E990E0FC011182108222C008E9D9
:1009200010E020E030E040E053E469817A818B817F
:100930009C810E94F90EDC01CB019C01AD0160E0BD
:1009400074E284EF9AE40E949A0DDC01CB01BC01B1
:10095000CD010E940C0EDC01CB010197F8019183BF
:10096000808384E990E0FC011182108289819A8160
:10097000AB81BC818093E4019093E501A093E601F3
:10098000B093E70100000F900F900F900F90DF9150
:10099000CF911F910F910895CF93DF93CDB7DEB71D
:1009A00080E990E020E4FC01208381E990E02BE0E5
:1009B000FC01208360E070E0CB010E942C04000069
:1009C000DF91CF910895CF93DF93CDB7DEB780E964
:1009D00090E0FC01108281E990E0FC0110820000AF
:1009E000DF91CF910895CF93DF9300D0CDB7DEB7DD
:1009F0009A8389830E941E028093180289819A81BA
:100A0000009719F00197D1F032C08091180283321B
:100A100059F481E090E09A8389838091D20190918A
:100A2000D3010E943A1125C08091D2019091D30147
:100A300001969093D3018093D2011BC0809118023C
:100A4000882359F482E090E09A8389838091D401CD
:100A50009091D5010E943A110CC08091D4019091DF
:100A6000D50101969093D5018093D40102C01A82DA
:100A7000198289819A810F900F90DF91CF9108950B
:100A8000CF93DF93CDB7DEB72A970FB6F894DEBFCA
:100A90000FBECDBF9A87898789859A858130910558
:100AA00009F442C08230910509F448C0892B09F04D
:100AB00056C11A8219822FC01C821B8223C0498111
:100AC0005A818B819C81489F9001499F300D589F8E
:100AD000300D112489819A8161E1689FA001699F8D
:100AE000500D11248B819C81840F951F880F991FB5
:100AF0008F5A9D4FFC01318320838B819C8101960D
:100B00009C838B838B819C814197CCF289819A81D4
:100B100001969A83898389819A8141976CF281E059
:100B200090E09A8789871FC180911201882309F478
:100B300019C182E090E09A87898714C10E9436111A
:100B400083709078992324F401978C6F9F6F01969E
:100B500090931502809314028091140290911502D3
:100B60008130910599F1823091051CF4892B49F06F
:100B7000EFC08230910509F46FC0039709F49EC05D
:100B8000E7C00E94361121E830E0B9010E94D50C7F
:100B900090939804809397040E94361121E830E0E6
:100BA000B9010E94D50C90931702809316022091F0
:100BB0009704309198048091160290911702820F49
:100BC000931F9093940480939304C2C00E943611A3
:100BD00021E830E0B9010E94D50C909398048093ED
:100BE00097040E94361121E830E0B9010E94D50C2B
:100BF00090931702809316022091970430919804E5
:100C0000809116029091170228173907A4F4809159
:100C10009704909198049E838D8380911602909101
:100C2000170290939804809397048D819E819093EE
:100C300017028093160220919704309198048091B6
:100C4000160290911702A901481B590BCA019093F3
:100C50009404809393047CC00E94361121E130E01B
:100C6000B9010E94D50C90939804809397040E9438
:100C7000361121E130E0B9010E94D50C90931702A2
:100C80008093160240919704509198048091160227
:100C90009091170261E1649F9001659F300D1124CE
:100CA000820F931F880F991F8F5A9D4FFC018081DF
:100CB000918190939404809393044AC00E943611CA
:100CC00021E130E0B9010E94D50C90939804809303
:100CD00097040E9436118F709078992324F401971D
:100CE000806F9F6F01960196909317028093160272
:100CF00040919704509198048091160290911702A8
:100D000061E1649F9001659F300D1124820F931F54
:100D1000880F991F8F5A9D4FFC018081918190937C
:100D200094048093930480919704909198049887F9
:100D30008F8380919304909194049093980480936E
:100D400097048F8198859093940480939304000076
:100D50001092120181E090E09A87898704C01A8678
:100D6000198601C0000089859A852A960FB6F894E5
:100D7000DEBF0FBECDBFDF91CF910895CF93DF933C
:100D800000D0CDB7DEB79A83898389819A81009795
:100D900019F0019719F128C08091DB01883029F4FE
:100DA00081E090E09A83898321C08091DB01882FC4
:100DB00090E0880F991F880F991F8C5E9E4FFC0151
:100DC00080819181A281B381BC01CD010E942C045C
:100DD0008091DB018F5F8093DB0108C060E070E0F1
:100DE000CB010E942C0402C01A82198289819A8147
:100DF0000F900F90DF91CF9108950F931F93CF9392
:100E0000DF93CDB7DEB727970FB6F894DEBF0FBEDE
:100E1000CDBF9F838E838E819F81092E000CAA0BEC
:100E2000BB0B40E050E02BE030E0841B950B281713
:100E3000390708F4CDC38A5B9F4FFC010C940B0D5E
:100E40006AE371E081E090E00E9465016BE471E08B
:100E500081E190E00E94650181E090E09F838E83B4
:100E6000C1C31092DA011092D90185E08093130179
:100E700080911802833209F0AEC382E090E09F8334
:100E80008E83A9C380911802882309F0A6C381E04C
:100E900090E09093D0018093CF0181E08093120184
:100EA00083E090E09F838E8398C380911201882312
:100EB00009F095C380919704909198044AE050E01E
:100EC00069E974E00E945011809116029091170216
:100ED0004AE050E069E372E00E94501180911402F0
:100EE00090911502892BC1F489E994E09C01F901E4
:100EF00001900020E9F7CF010197821B930B8756E1
:100F00009B4F20E23BE2FC013183208320E230E072
:100F1000FC013383228359C0809114029091150201
:100F20000197C1F489E994E09C01F9010190002046
:100F3000E9F7CF010197821B930B87569B4F20E265
:100F40003DE2FC013183208320E230E0FC01338369
:100F500022833BC080911402909115020297C1F444
:100F600089E994E09C01F90101900020E9F7CF01A3
:100F70000197821B930B87569B4F20E23AE2FC01BC
:100F80003183208320E230E0FC01338322831DC0C3
:100F900080911402909115020397B9F489E994E0C5
:100FA0009C01F90101900020E9F7CF010197821B14
:100FB000930B87569B4F20E23FE2FC013183208355
:100FC00020E230E0FC013383228369E372E089E9A7
:100FD00094E00E94451189E994E09C01F901019097
:100FE0000020E9F7CF010197821B930B87569B4F97
:100FF00020E23DE3FC013183208320E230E0FC016C
:10100000338322830E94B4008CE090E09093960496
:101010008093950469E974E081E090E00E946501A5
:101020006CE571E081E190E00E9465018091D90159
:101030009091DA014AE050E069E272E00E945011BA
:1010400069E272E088E190E00E94650180911301FD
:10105000882F90E04AE050E069E172E00E94501170
:1010600069E172E080E290E00E9465018091950460
:10107000909196048093DD0184E090E09F838E83BD
:10108000AEC22091E2013091E30180913401909150
:1010900035012817390728F089E090E09F838E8377
:1010A00048C080911802882309F443C08091180237
:1010B000833221F481E08093D10129C0809118020C
:1010C0008A3299F48091DC01882309F18091DC0156
:1010D00081508093DC018091DC01882F90E08A525E
:1010E0009E4F20E2FC01208312C08091DC018330FE
:1010F00070F48091DC0191E0980F9093DC01882FCF
:1011000090E0209118028A529E4FFC01208380912A
:1011100095049091960466ED71E00E94650164E685
:1011200071E08FE090E00E94650185E090E09F8390
:101130008E838091E2019091E301C2969093E30146
:101140008093E2011092E1011092E0014BC22091E4
:10115000E2013091E301809134019091350128172B
:10116000390728F089E090E09F838E83C9C0809181
:101170001802882309F0C4C08091D101882309F4A2
:10118000BBC01092DF011092DE01198284E68A83CF
:1011900082E08B831AC08B81082E000C990B8A5237
:1011A0009E4FFC018081803251F08B81082E000C13
:1011B000990B8A529E4FFC018081882319F4898102
:1011C0008F5F89838B8181508B838B8188231CF770
:1011D0008981833039F48FEF9FEF9093DF01809303
:1011E000DE016BC08A81082F10E08981882F90E092
:1011F000A0E0B0E0BC01CD010E94420EDC01CB01B9
:101200009C01AD0160E070E080E291E40E94660F15
:10121000DC01CB0120E030E040E05FE3BC01CD0128
:101220000E94290DDC01CB01BC01CD010E940C0EF6
:10123000DC01CB019C01C801B9010E94D50CCB0196
:101240008A831D821C8235C08C819D818A529E4F6B
:10125000FC0180818823F9F08C819D818A529E4F08
:10126000FC018081882F90E0AC01405351098A81B4
:10127000882F90E0489F9001499F300D589F300D76
:1012800011248091DE019091DF01820F931F9093D2
:10129000DF018093DE019A818DEC989F812D1124CE
:1012A0008695869586958A838C819D8101969D83FE
:1012B0008C838C819D8103973CF22091DE013091DB
:1012C000DF0180919304909194042817390729F441
:1012D00086E090E09F838E8304C088E090E09F8347
:1012E0008E8380919304909194044AE050E069E4E5
:1012F00072E00E94501104C084E090E09F838E83CE
:101300008091E2019091E301C2969093E301809372
:10131000E20168C10E94B40067E671E083E090E0FA
:101320000E94650164E771E083E190E00E9465013D
:1013300069E472E08DE190E00E9465018091D9013D
:101340009091DA0101969093DA018093D90181E0BE
:10135000809312018AE090E09F838E8343C1809145
:10136000E0019091E101892B71F08091E001909171
:10137000E101883E934039F08091E0019091E101D4
:10138000803D974069F46FE771E085E090E00E944E
:10139000650168E871E088E190E00E94650123C082
:1013A0008091E0019091E101843F914071F0809142
:1013B000E0019091E1018C3D954039F08091E00190
:1013C0009091E101843C994019F40E94B4000BC053
:1013D0008091E0019091E101883B9B4024F083E003
:1013E00090E09F838E838091E0019091E101C2960D
:1013F0009093E1018093E001F5C00E94B4006BE896
:1014000071E082E090E00E94650164E771E083E1B1
:1014100090E00E94650169E472E08DE190E00E9435
:1014200065018091130181508093130181E08093C5
:1014300012018AE090E09F838E83D4C08091930450
:10144000909194044AE050E069E472E00E945011E7
:101450000E94B4006AE971E084E090E00E946501B6
:1014600064E771E083E190E00E94650169E472E065
:101470008DE190E00E94650180911301815080937D
:10148000130181E0809312018AE090E09F838E83B4
:10149000A9C01092E3011092E2011092D1011092C2
:1014A000D6011092D7011092D8011092DC018091E0
:1014B000E0019091E101C2969093E1018093E001F7
:1014C0008091E0019091E1018C3D954009F089C047
:1014D00080911301882329F48BE090E09F838E8311
:1014E00034C08091D9019091DA01079791F48091ED
:1014F0003401909135018037974159F087E090E0B1
:101500009F838E8380E797E1909335018093340128
:101510001CC08091D9019091DA010C9791F48091CF
:101520003401909135018838934159F087E090E07B
:101530009F838E8388E893E19093350180933401F3
:1015400004C083E090E09F838E831092E1011092AB
:10155000E0010E94B40045C00E94B40065EA71E059
:1015600081E090E00E9465018091D9019091DA01BB
:101570004AE050E069E272E00E94501189E292E094
:101580009C01F90101900020E9F7CF010197821B2E
:10159000930B875D9D4F26E0EEEAF1E0DC010190C0
:1015A0000D922A95E1F769E272E089E090E00E94ED
:1015B000650164EB71E082E190E00E9465011092A8
:1015C000D0011092CF0181E090E09F838E830AC00A
:1015D0001F821E8207C0000005C0000003C000007B
:1015E00001C000008E819F8127960FB6F894DEBF60
:1015F0000FBECDBFDF91CF911F910F9108950F9333
:101600001F93CF93DF93CDB7DEB761970FB6F894F2
:10161000DEBF0FBECDBF81E290E02FEFFC01208343
:1016200082E290E0FC01108284E290E02FEFFC0166
:10163000208385E290E0FC01108287E290E020EFB9
:10164000FC01208388E290E02FE0FC0120838AE205
:1016500090E02FEFFC0120838BE290E0FC011082F0
:1016600086E0E3ECF1E0DE011C9601900D928A9594
:10167000E1F783E090E09A8789878FEF8B878B85EE
:101680008093E80189E190E0A0E0B0E08093E90177
:101690009093EA01A093EB01B093EC018091E901F2
:1016A0009091EA01A091EB01B091EC018093ED01E2
:1016B0009093EE01A093EF01B093F00180E495E0E8
:1016C0009093F2018093F1018B858093F30188E57B
:1016D00092E0A0E0B0E08093F4019093F501A09334
:1016E000F601B093F7018091F4019091F501A0917A
:1016F000F601B091F7018093F8019093F901A0935E
:10170000FA01B093FB018EEB96E09093FD0180937C
:10171000FC018B858093FE0182E390E0A0E0B0E0C5
:101720008093FF0190930002A0930102B093020204
:101730008091FF0190910002A0910102B0910202FC
:101740008093030290930402A0930502B0930602D3
:101750008DEF96E090930802809307028B8580932B
:10176000090281E090E0A0E0B0E080930A0290934B
:101770000B02A0930C02B0930D0280910A0290918B
:101780000B02A0910C02B0910D0280930E02909377
:101790000F02A0931002B093110283EF94E0909394
:1017A0001302809312028C859D85FC0181819281B8
:1017B000A381B48189839A83AB83BC8381E090E069
:1017C0009E838D8325C08D819E81880F991F9E01E8
:1017D0002F5F3F4F820F931F0B96FC0180819181F9
:1017E000FC01218132814381548189819A81AB81BD
:1017F000BC81BC01CD010E94D802DC01CB018983F0
:101800009A83AB83BC838D819E8101969E838D8359
:101810002D813E8189859A8528173907A0F2898113
:101820009A81AB81BC81BC01CD010E9425030E943D
:1018300053030E94CC0460E070E0CB010E942C04B2
:101840000E94BF0018861F82A0C08F819885880FD4
:10185000991F9E012F5F3F4F820F931F0B96FC0134
:1018600080819181FC0125813681478150858F815E
:101870009885880F991FBE016F5F7F4F860F971F56
:101880000B96FC0180819181FC0181819281A38171
:10189000B481281739074A075B0709F045C08F81D3
:1018A0009885880F991F9E012F5F3F4F820F931FCE
:1018B0000B96FC01008111818F819885880F991FFB
:1018C0009E012F5F3F4F820F931F0B96FC0180817B
:1018D0009181FC01218532858F819885880F991F20
:1018E000AE014F5F5F4F840F951F0B96FC01808107
:1018F0009181FC018081082E000C990BF90109955A
:10190000F80180838F819885880F991F9E012F5F32
:101910003F4F820F931F0B96FC0180819181FC0148
:1019200015821682178210868F819885880F991FDD
:101930009E012F5F3F4F820F931F0B96FC0160812A
:1019400071818F819885880F991F9E012F5F3F4F6E
:10195000820F931F0B96FC0180819181FC012581F0
:1019600036814781508589819A81AB81BC81820F04
:10197000931FA41FB51FFB0185839683A783B087A0
:101980008F819885019698878F832F8138858985E7
:101990009A852817390708F458CF00008091CA01AA
:1019A0008823E1F31092CA014DCF97FB072E16F45E
:1019B000009407D077FD09D00E94140D07FC05D0D4
:1019C0003EF4909581959F4F0895709561957F4F56
:1019D0000895A1E21A2EAA1BBB1BFD010DC0AA1F70
:1019E000BB1FEE1FFF1FA217B307E407F50720F088
:1019F000A21BB30BE40BF50B661F771F881F991F03
:101A00001A9469F760957095809590959B01AC014B
:101A1000BD01CF010895EE0FFF1F0024001C0BBE77
:101A20000790F691E02D0994AA1BBB1B51E107C05A
:101A3000AA1FBB1FA617B70710F0A61BB70B881F5E
:101A4000991F5A95A9F780959095BC01CD010895ED
:101A50005058BB27AA270E94400D0C94BA0E0E9432
:101A6000AC0E38F00E94B30E20F039F49F3F19F409
:101A700026F40C94A90E0EF4E095E7FB0C94A30E4B
:101A8000E92F0E94CB0E58F3BA1762077307840739
:101A9000950720F079F4A6F50C94ED0E0EF4E09580
:101AA0000B2EBA2FA02D0B01B90190010C01CA0118
:101AB000A0011124FF27591B99F0593F50F4503EC3
:101AC00068F11A16F040A22F232F342F4427585FB5
:101AD000F3CF469537952795A795F0405395C9F7CD
:101AE0007EF41F16BA0B620B730B840BBAF0915085
:101AF000A1F0FF0FBB1F661F771F881FC2F70EC024
:101B0000BA0F621F731F841F48F4879577956795F6
:101B1000B795F7959E3F08F0B0CF9395880F08F0E2
:101B20009927EE0F9795879508950E947F0E08F4E8
:101B300081E008950E94AE0D0C94BA0E0E94B30E7F
:101B400058F00E94AC0E40F029F45F3F29F00C944D
:101B5000A30E51110C94EE0E0C94A90E0E94CB0E04
:101B600068F39923B1F3552391F3951B550BBB27CC
:101B7000AA2762177307840738F09F5F5F4F220F11
:101B8000331F441FAA1FA9F335D00E2E3AF0E0E808
:101B900032D091505040E695001CCAF72BD0FE2F52
:101BA00029D0660F771F881FBB1F261737074807E6
:101BB000AB07B0E809F0BB0B802DBF01FF2793589E
:101BC0005F4F3AF09E3F510578F00C94A30E0C94B1
:101BD000EE0E5F3FE4F3983ED4F3869577956795D4
:101BE000B795F7959F5FC9F7880F911D96958795D3
:101BF00097F90895E1E0660F771F881FBB1F6217F2
:101C000073078407BA0720F0621B730B840BBA0BAF
:101C1000EE1F88F7E09508950E94130E6894B111A5
:101C20000C94EE0E08950E94D30E88F09F5798F002
:101C3000B92F9927B751B0F0E1F0660F771F881FD1
:101C4000991F1AF0BA95C9F714C0B13091F00E94EB
:101C5000ED0EB1E008950C94ED0E672F782F8827D4
:101C6000B85F39F0B93FCCF3869577956795B39512
:101C7000D9F73EF490958095709561957F4F8F4F81
:101C80009F4F0895E89409C097FB3EF49095809586
:101C9000709561957F4F8F4F9F4F9923A9F0F92F32
:101CA00096E9BB279395F695879577956795B795B0
:101CB000F111F8CFFAF4BB0F11F460FF1BC06F5F96
:101CC0007F4F8F4F9F4F16C0882311F096E911C0A8
:101CD000772321F09EE8872F762F05C0662371F0C9
:101CE00096E8862F70E060E02AF09A95660F771FDD
:101CF000881FDAF7880F9695879597F90895990FB9
:101D00000008550FAA0BE0E8FEEF16161706E807C5
:101D1000F907C0F012161306E407F50798F0621BE6
:101D2000730B840B950B39F40A2661F0232B242BBB
:101D3000252B21F408950A2609F4A140A6958FEFDA
:101D4000811D811D089597F99F6780E870E060E02C
:101D500008959FEF80EC089500240A941616170644
:101D600018060906089500240A941216130614068C
:101D700005060895092E0394000C11F4882352F0EF
:101D8000BB0F40F4BF2B11F460FF04C06F5F7F4FA7
:101D90008F4F9F4F089557FD9058440F551F59F08E
:101DA0005F3F71F04795880F97FB991F61F09F3F48
:101DB00079F087950895121613061406551FF2CF71
:101DC0004695F1DF08C0161617061806991FF1CFC1
:101DD00086957105610508940895E894BB276627E8
:101DE0007727CB0197F908950E947F0E08F48FEFB3
:101DF00008950E940C0F0C94BA0E0E94AC0E38F09D
:101E00000E94B30E20F0952311F00C94A30E0C94B5
:101E1000A90E11240C94EE0E0E94CB0E70F3959F28
:101E2000C1F3950F50E0551F629FF001729FBB27D1
:101E3000F00DB11D639FAA27F00DB11DAA1F649F6D
:101E40006627B00DA11D661F829F2227B00DA11D20
:101E5000621F739FB00DA11D621F839FA00D611DA6
:101E6000221F749F3327A00D611D231F849F600DC7
:101E7000211D822F762F6A2F11249F5750409AF0F0
:101E8000F1F088234AF0EE0FFF1FBB1F661F771F7C
:101E9000881F91505040A9F79E3F510580F00C9447
:101EA000A30E0C94EE0E5F3FE4F3983ED4F38695B8
:101EB00077956795B795F795E7959F5FC1F7FE2BE7
:101EC000880F911D9695879597F90895FA01EE0F61
:101ED000FF1F309621053105A1F16115710561F4EF
:101EE0008038BFE39B0749F168949038810561F021
:101EF0008038BFEF9B0741F099234AF5FF3FE1058A
:101F00003105210519F1E8940894E795D901AA2330
:101F100029F4AB2FBE2FF85FD0F310C0FF5F70F431
:101F2000A695E0F7F73950F019F0FF3A38F49F77AB
:101F30009F930DD00F9007FC9058089546F00C9495
:101F4000A90E60E070E080E89FE308954FE79F7777
:101F50005F934F933F932F930E9461102F913F9176
:101F60004F915F910E94F90E0C94BE0F29F416F068
:101F70000C94A30E0C94ED0E0C94A90E0E94D30E9B
:101F8000A8F39638A0F707F80F92E8942BE33AEA03
:101F900048EB5FE70E940F0F0F920F920F924DB721
:101FA0005EB70F920E94A910E4EAF0E00E94F00FE1
:101FB0004F915F91EF91FF91E595EE1FFF1F49F063
:101FC000FE57E0684427EE0F441FFA95E1F741956C
:101FD000550B0E9423100F9007FE0C9417100895C4
:101FE000DF93CF931F930F93FF92EF92DF927B01CA
:101FF0008C01689406C0DA2EEF010E940C0FFE01DE
:10200000E894A5912591359145915591A6F3EF015D
:102010000E94400DFE019701A801DA9469F7DF9054
:10202000EF90FF900F911F91CF91DF9108959B0149
:10203000AC0160E070E080E89FE30C949A0D0C9492
:10204000A30E0C94DD100E94D30ED8F39923C9F38C
:10205000940F511DA3F39150504094F059F08823F0
:1020600032F0660F771F881F91505040C1F79E3F96
:1020700051052CF7880F911D9695879597F908952E
:102080005F3FACF0983E9CF0BB27869577956795AF
:10209000B79508F4B1609395C1F7BB0F58F711F4E9
:1020A00060FFE8CF6F5F7F4F8F4F9F4FE3CF0C9460
:1020B000EE0E16F00C94DD100C94A90E68940C949E
:1020C000A30E0E94D30EA8F39923C1F3AEF3DF93BE
:1020D000CF931F930F93FF92C92FDD2788232AF0F8
:1020E0002197660F771F881FDAF720E030E040E87D
:1020F0005FEB9FE3883920F0803E38F021968F77A0
:102100000E94290DECECF0E004C00E94290DE9EFDB
:10211000F0E00E94F00F8B01BE01EC01FB2E6F5727
:1021200071097595771F880B990B0E94440E28E161
:1021300032E741E35FE30E940C0FAF2D9801AE013F
:10214000FF900F911F91CF91DF910E94400D0C9451
:10215000BA0EFA01DC01AA0FBB1F9B01AC01BF57ED
:1021600028F4222733274427507820C0B75190F411
:10217000AB2F0024469537952795011CA395D2F3E4
:10218000002071F0220F331F441FB395DAF30ED0F5
:102190000C94280D61307105A0E88A07B94630F427
:1021A0009B01AC016627772788279078309621F02D
:1021B000208331834283538308959F3F31F09150B0
:1021C00020F4879577956795B795880F911D96951B
:1021D000879597F908958F929F92AF92BF92CF9271
:1021E000DF92EF92FF92CF93DF93EC0168817981C8
:1021F0008A819B81611571058105910521F464E255
:1022000079ED8BE597E02DE133EF41E050E00E945E
:10221000901149015A019B01AC01A7EAB1E40E9467
:10222000AF116B017C01ACEEB4EFA50194010E94EB
:10223000BD11DC01CB018C0D9D1DAE1DBF1DB7FF77
:1022400003C00197A109B04888839983AA83BB83FF
:102250009F77DF91CF91FF90EF90DF90CF90BF906D
:10226000AF909F908F9008950C94EB1086E391E0CF
:102270000C94EB10A0E0B0E080933601909337010E
:10228000A0933801B09339010895FB01DC010D9052
:102290000020E9F7119701900D920020E1F70895D1
:1022A0004532510520F4423010F00C945B11FB01D3
:1022B0001082CB010895BB274A3031F4992322F4D0
:1022C000BDE2909581959F4F0C946711BB27FB0150
:1022D0005527AA27880F991FAA1FA41710F0A41B1F
:1022E00083955051B9F7A05DAA3308F0A95DA19379
:1022F000009779F7B111B1931192CB010C94801131
:10230000DC01FC01672F71917723E1F7329704C05C
:102310007C916D9370836291AE17BF07C8F30895E7
:10232000052E97FB1EF400940E94A71157FD07D0BD
:102330000E94E90C07FC03D04EF40C94A7115095B1
:102340004095309521953F4F4F4F5F4F08959095A1
:102350008095709561957F4F8F4F9F4F08950E9494
:10236000C211A59F900DB49F900DA49F800D911D4B
:1023700011240895B7FF0C94AF110E94AF11821B76
:10238000930B0895A29FB001B39FC001A39F700D4E
:10239000811D1124911DB29F700D811D1124911D6D
:0623A0000895F894FFCF40
:1023A600010000000000000200000000030400001D
:1023B60000000105A4D082437BD49243A4D0A44359
:1023C600719DAE430000C4430000DC43A4F0F64315
:1023D60000D00244581B010000002A2A4D6174688F
:1023E6002D2D4D61737465722A2A005072657373C0
:1023F600202320746F20706C6179210053636F7203
:10240600653A2000202000436F72726563742121B3
:10241600203A2900536F6C7574696F6E3A20005329
:1024260050454544494E4700555000496E636F720A
:10243600726563742E2E203A280054696D652773E1
:10244600207570210046494E4953482120002070CE
:1024560074732100526573746172742077697468AD
:0A2466002023000902E801FE010036
:00000001FF
