:100000000C949A000C94B9000C94B9000C94B900AB
:100010000C94B9000C94B9000C94B9000C94B9007C
:100020000C94B9000C94B9000C94B9000C94B9006C
:100030000C94B9000C94A8030C94B9000C94B9006A
:100040000C94B9000C94B9000C94B9000C94B9004C
:100050000C94B9000C94B9000C94B9000C94B9003C
:100060000C94B9000C94B9000C94B9000C94B9002C
:100070000C94B9000C94B9000C94B9000C94B9001C
:100080000C94B9000C94B9000C94B900E1060A076D
:100090008007B507EA071F085408FF08100921095F
:1000A0003409200A890A750B9A0BE80B090C340CE9
:1000B000AC0C07634236B79BD8A71A39685618AEFE
:1000C000BAAB558C1D3CB7CC5763BD6DEDFD753E8D
:1000D000F6177231BF000000803F08000000BE929A
:1000E0002449123EABAAAA2ABECDCCCC4C3E00007D
:1000F0000080BEABAAAAAA3E00000000BF0000001C
:10010000803F0000000000084178D3BB4387D11333
:100110003D190E3CC3BD4282AD2B3E68EC8276BEDB
:10012000D98FE1A93E4C80EFFFBE01C4FF7F3F00A5
:100130000000000011241FBECFEFD0E4DEBFCDBF12
:1001400016E0A0E0B1E0E4E7F8E200E00BBF02C097
:1001500007900D92A034B107D9F72DE0A0E4B6E0E6
:1001600001C01D92AB32B207E1F70E94FF0C0C9464
:1001700038140C940000CF93DF93CDB7DEB781E045
:100180000E94DF000000DF91CF910895CF93DF93AD
:10019000CDB7DEB784E690E00E94AE0188E30E940E
:1001A000DF008CE00E94DF0081E00E94DF008AE037
:1001B00090E00E94AE010000DF91CF910895CF93AF
:1001C000DF931F92CDB7DEB789838BE290E02BE2FD
:1001D00030E0F90120812E7FFC01208382E290E053
:1001E0002981FC0120838BE290E02BE230E0F901D1
:1001F00020812460FC01208300008BE290E02BE250
:1002000030E0F90120812B7FFC01208382E090E027
:100210000E94AE0100000F90DF91CF910895CF931F
:10022000DF931F92CDB7DEB789838BE290E02BE29C
:1002300030E0F90120812160FC01208382E290E01E
:100240002981FC0120838BE290E02BE230E0F90170
:1002500020812460FC01208300008BE290E02BE2EF
:1002600030E0F90120812B7FFC01208381E090E0C8
:100270000E94AE0100000F90DF91CF910895CF93BF
:10028000DF9300D000D0CDB7DEB78A837C836B8349
:100290000E94BB008A81898311C0898191E0980FF7
:1002A00099830E9497018B819C819C012F5F3F4F16
:1002B0003C832B83FC0180810E940F018B819C81F8
:1002C000FC018081882349F700000F900F900F9068
:1002D0000F90DF91CF910895CF93DF9300D000D09E
:1002E000CDB7DEB78A837C836B838A81898311C013
:1002F000898191E0980F99830E9497018B819C815D
:100300009C012F5F3F4F3C832B83FC0180810E9427
:100310000F018B819C81FC018081882349F70000BB
:100320000F900F900F900F90DF91CF910895CF9382
:10033000DF931F92CDB7DEB789838981813128F49D
:10034000898181580E94DF0004C0898181550E9403
:10035000DF0000000F90DF91CF910895CF93DF93DE
:1003600000D000D000D0CDB7DEB79E838D831A8237
:10037000198213C01C821B8206C000008B819C81E5
:1003800001969C838B838B819C8187309340ACF357
:1003900089819A8101969A83898329813A818D8105
:1003A0009E812817390734F3000026960FB6F8947B
:1003B000DEBF0FBECDBFDF91CF910895CF93DF9306
:1003C00000D01F92CDB7DEB789836A834B838B81C0
:1003D000882371F08A81282F30E081E090E002C00C
:1003E000880F991F2A95E2F7982F8981892B0EC0D3
:1003F0008A81282F30E081E090E002C0880F991FA9
:100400002A95E2F7982F9095898189230F900F9074
:100410000F90DF91CF910895CF93DF9300D0CDB7A8
:10042000DEB789836A838A81282F30E081E090E0FB
:1004300002C0880F991F2A95E2F7982F8981892396
:100440000F900F90DF91CF9108950F931F93CF934B
:10045000DF93CDB7DEB708E210E040E064E08FEF55
:100460000E94DE01F8018083000086E290E0FC013A
:100470008081809560E00E940C02882311F081E366
:1004800099C086E290E0FC018081809561E00E9445
:100490000C02882311F084E38DC086E290E0FC0119
:1004A0008081809562E00E940C02882311F087E32E
:1004B00081C086E290E0FC018081809563E00E942B
:1004C0000C02882311F08AE275C008E210E040E0D7
:1004D00065E08FEF0E94DE01F8018083000086E274
:1004E00090E0FC018081809560E00E940C028823EE
:1004F00011F082E35FC086E290E0FC01808180958C
:1005000061E00E940C02882311F085E353C086E26B
:1005100090E0FC018081809562E00E940C028823BB
:1005200011F088E347C086E290E0FC01808180956D
:1005300063E00E940C02882311F080E33BC008E2D4
:1005400010E040E066E08FEF0E94DE01F80180835A
:10055000000086E290E0FC018081809560E00E94CE
:100560000C02882311F083E325C086E290E0FC01B1
:100570008081809561E00E940C02882311F086E35F
:1005800019C086E290E0FC018081809562E00E94C3
:100590000C02882311F089E30DC086E290E0FC0193
:1005A0008081809563E00E940C02882311F083E231
:1005B00001C080E0DF91CF911F910F910895CF93FB
:1005C000DF93CDB7DEB72C970FB6F894DEBF0FBE22
:1005D000CDBF6D837E838F83988729873A874B872A
:1005E0005C878D819E81AF81B88529853A854B8551
:1005F0005C85BC01CD010E94500FDC01CB018983D9
:100600009A83AB83BC8389819A81AB81BC81892B1E
:100610008A2B8B2B29F489859A85AB85BC8511C0E3
:1006200089859A85AB85BC858D839E83AF83B8878A
:1006300089819A81AB81BC8189879A87AB87BC8786
:10064000D0CFBC01CD012C960FB6F894DEBF0FBE03
:10065000CDBFDF91CF910895CF93DF9300D000D02D
:10066000CDB7DEB769837A838B839C8389819A8136
:10067000AB81BC818093000190930101A0930201A2
:10068000B09303018091000190910101A0910201BA
:10069000B09103018093410690934206A0934306D4
:1006A000B093440600000F900F900F900F90DF91D1
:1006B000CF910895CF93DF93CDB7DEB781E890E077
:1006C0002BE0FC01208388E890E02DE730E0FC017E
:1006D000318320838FE690E022E0FC01208384E8D0
:1006E00090E0FC0111821082809100019091010143
:1006F000A0910201B09103018093410690934206BC
:10070000A0934306B09344068FE590E02FE530E0D8
:10071000F90120812068FC0120830000DF91CF9146
:100720000895CF93DF93CDB7DEB781E890E0FC0169
:1007300010820000DF91CF910895CF93DF93CDB762
:10074000DEB781E0809340060000DF91CF910895ED
:100750001F920F9200905F000F92112400905B0097
:100760000F922F933F934F935F936F937F938F934A
:100770009F93AF93BF93EF93FF93CF93DF93CDB747
:10078000DEB78091410690914206A0914306B09158
:1007900044060197A109B10980934106909342064E
:1007A000A0934306B093440680914106909142067F
:1007B000A0914306B0914406892B8A2B8B2B91F490
:1007C0000E949D038091000190910101A09102017E
:1007D000B09103018093410690934206A093430693
:1007E000B09344060000DF91CF91FF91EF91BF914C
:1007F000AF919F918F917F916F915F914F913F91B9
:100800002F910F9000925B000F9000925F000F906D
:100810001F901895CF93DF9300D01F92CDB7DEB70E
:1008200089837B836A8389818A3031F48A819B81C1
:10083000BC018DE00E940A0480EC90E0FC01808104
:10084000882F90E080729927892BB1F386EC90E095
:100850002981FC01208380E090E00F900F900F90A1
:10086000DF91CF9108950F931F93CF93DF9300D023
:1008700000D0CDB7DEB769837A838B839C83809168
:100880005F0690916006A0916106B09162069C019E
:10089000AD0169817A818B819C810E94FC0F882344
:1008A00009F477C020E030E0A90169817A818B8169
:1008B0009C810E94FC0F882351F481E990E021E99A
:1008C00030E0F90120812870FC01208309C081E912
:1008D00090E021E930E0F90120812360FC012083D0
:1008E00028E539E344E75FE369817A818B819C8164
:1008F0000E94FC0F882344F488E990E02FEF3FEF3B
:10090000FC013183208334C020E034E244EF56E41C
:1009100069817A818B819C810E945B11181634F465
:1009200088E990E0FC011182108222C008E910E001
:1009300020E030E040E053E469817A818B819C8142
:100940000E946011DC01CB019C01AD0160E074E20A
:1009500084EF9AE40E940110DC01CB01BC01CD01BF
:100960000E947310DC01CB010197F8019183808311
:1009700084E990E0FC011182108289819A81AB8127
:10098000BC8180935F0690936006A0936106B0934C
:10099000620600000F900F900F900F90DF91CF91A3
:1009A0001F910F910895CF93DF93CDB7DEB780E904
:1009B00090E020E4FC01208381E990E02BE0FC0141
:1009C000208360E070E0CB010E9433040000DF91DF
:1009D000CF910895CF93DF93CDB7DEB780E990E054
:1009E000FC01108281E990E0FC0110820000DF919F
:1009F000CF910895CF93DF9300D0CDB7DEB79A8320
:100A000089830E94250280939E0689819A8100979E
:100A100019F00197D1F032C080919E06833259F4CB
:100A200081E090E09A8389838091480690914906FD
:100A30000E94A11325C08091480690914906019615
:100A400090934906809348061BC080919E06882398
:100A500059F482E090E09A83898380914A069091CC
:100A60004B060E94A1130CC080914A0690914B0640
:100A7000019690934B0680934A0602C01A8219820F
:100A800089819A810F900F90DF91CF910895CF9334
:100A9000DF93CDB7DEB72A970FB6F894DEBF0FBE4F
:100AA000CDBF9A87898789859A858130910509F418
:100AB00042C08230910509F448C0892B09F056C123
:100AC0001A8219822FC01C821B8223C049815A813D
:100AD0008B819C81489F9001499F300D589F300D1C
:100AE000112489819A8161E1689FA001699F500D5D
:100AF00011248B819C81840F951F880F991F895227
:100B0000954FFC01318320838B819C8101969C83CE
:100B10008B838B819C814197CCF289819A8101964C
:100B20009A83898389819A8141976CF281E090E070
:100B30009A8789871FC180911201882309F419C1FE
:100B400082E090E09A87898714C10E949D13837088
:100B50009078992324F401978C6F9F6F019690935E
:100B60009B0680939A0680919A0690919B0681300D
:100B7000910599F1823091051CF4892B49F0EFC061
:100B80008230910509F46FC0039709F49EC0E7C055
:100B90000E949D1321E830E0B9010E943C0F909320
:100BA0001E0D80931D0D0E949D1321E830E0B901B8
:100BB0000E943C0F90939D0680939C0620911D0DF2
:100BC00030911E0D80919C0690919D06820F931F7F
:100BD00090931A0D8093190DC2C00E949D1321E8B5
:100BE00030E0B9010E943C0F90931E0D80931D0DC3
:100BF0000E949D1321E830E0B9010E943C0F9093C0
:100C00009D0680939C0620911D0D30911E0D8091B4
:100C10009C0690919D0628173907A4F480911D0D1C
:100C200090911E0D9E838D8380919C0690919D06D0
:100C300090931E0D80931D0D8D819E8190939D0636
:100C400080939C0620911D0D30911E0D80919C0675
:100C500090919D06A901481B590BCA0190931A0D4A
:100C60008093190D7CC00E949D1321E130E0B901F1
:100C70000E943C0F90931E0D80931D0D0E949D13AA
:100C800021E130E0B9010E943C0F90939D068093D2
:100C90009C0640911D0D50911E0D80919C069091D7
:100CA0009D0661E1649F9001659F300D1124820FC4
:100CB000931F880F991F8952954FFC018081918164
:100CC00090931A0D8093190D4AC00E949D1321E143
:100CD00030E0B9010E943C0F90931E0D80931D0DD2
:100CE0000E949D138F709078992324F40197806F50
:100CF0009F6F0196019690939D0680939C0640916C
:100D00001D0D50911E0D80919C0690919D0661E1F4
:100D1000649F9001659F300D1124820F931F880FEF
:100D2000991F8952954FFC018081918190931A0DF2
:100D30008093190D80911D0D90911E0D98878F83C2
:100D40008091190D90911A0D90931E0D80931D0D99
:100D50008F81988590931A0D8093190D0000109241
:100D6000120181E090E09A87898704C01A8619866B
:100D700001C0000089859A852A960FB6F894DEBFD7
:100D80000FBECDBFDF91CF910895CF93DF9300D0F9
:100D9000CDB7DEB79A83898389819A81092E000CA9
:100DA000AA0BBB0B40E050E026E030E0841B950B23
:100DB0002817390708F4B1C18A5B9F4FFC010C94D6
:100DC000720F8091450690914606892B51F081E083
:100DD00090E09A83898360E070E0CB010E94330445
:100DE000A0C180915606882F90E0880F991F880F28
:100DF000991F8C5E9E4FFC0180819181A281B381FD
:100E0000BC01CD010E943304809156068F5F809310
:100E1000560687C11092560680914C06882399F099
:100E20008BE690E0A0E0B0E080939C0590939D0558
:100E3000A0939E05B0939F0582E090E09A838983FA
:100E400010924C066DC180914D06882399F087EA77
:100E500090E0A0E0B0E080939C0590939D05A09366
:100E60009E05B0939F0583E090E09A83898310925A
:100E70004D0656C180914E06882399F086E990E090
:100E8000A0E0B0E080939C0590939D05A0939E0503
:100E9000B0939F0584E090E09A83898310924E0678
:100EA0003FC180914F06882399F084EF91E0A0E044
:100EB000B0E080939C0590939D05A0939E05B09310
:100EC0009F0585E090E09A83898310924F0628C1A0
:100ED00080915006882309F423C181E490E0A0E0CA
:100EE000B0E080939C0590939D05A0939E05B093E0
:100EF0009F0586E090E09A8389831092500610C186
:100F00008BE690E0A0E0B0E080939C0590939D0577
:100F1000A0939E05B0939F0580915606883061F49A
:100F20001092560681E090E09A83898360E070E039
:100F3000CB010E943304F5C080915606882F90E0C3
:100F4000880F991F880F991F8C5E9A4FFC01808132
:100F50009181A281B381BC01CD010E9433048091B3
:100F600056068F5F80935606DCC087EA90E0A0E0CB
:100F7000B0E080939C0590939D05A0939E05B0934F
:100F80009F05809156068C3061F41092560681E0E0
:100F900090E09A83898360E070E0CB010E94330483
:100FA000C0C080915606882F90E0880F991F880F47
:100FB000991F8C5C9A4FFC0180819181A281B38141
:100FC000BC01CD010E943304809156068F5F80934F
:100FD0005606A7C086E990E0A0E0B0E080939C05AB
:100FE00090939D05A0939E05B0939F058091560612
:100FF000883061F41092560681E090E09A838983EC
:1010000060E070E0CB010E9433048BC080915606F3
:10101000882F90E0880F991F880F991F8C599A4F3D
:10102000FC0180819181A281B381BC01CD010E942C
:101030003304809156068F5F8093560672C084EF0A
:1010400091E0A0E0B0E080939C0590939D05A09373
:101050009E05B0939F0580915606863061F41092EC
:10106000560681E090E09A83898360E070E0CB01CE
:101070000E94330456C080915606882F90E0880F56
:10108000991F880F991F8C579A4FFC01808191817D
:10109000A281B381BC01CD010E9433048091560628
:1010A0008F5F809356063DC081E490E0A0E0B0E001
:1010B00080939C0590939D05A0939E05B0939F05FA
:1010C0008091450690914606892B21F4809112016A
:1010D000882351F081E090E09A83898360E070E09A
:1010E000CB010E9433041DC080915606882F90E0EA
:1010F000880F991F880F991F8155994FFC01808196
:101100009181A281B381BC01CD010E943304809101
:1011100056068F5F8093560604C01A82198201C05A
:10112000000089819A810F900F90DF91CF910895EF
:10113000CF93DF9300D0CDB7DEB79A8389838981BF
:101140009A818130910581F082309105B1F0892B2F
:1011500031F58091450690914606892B19F181E081
:1011600090E09A8389831EC0809112018823E1F464
:1011700082E090E09A83898317C08091A70581500F
:101180008093A70585E290E02091A705222F30E00B
:1011900020563A4FF9012081FC01208306C01A82B3
:1011A000198203C0000001C0000089819A810F905C
:1011B0000F90DF91CF9108950F931F93CF93DF93FB
:1011C000CDB7DEB727970FB6F894DEBF0FBECDBF01
:1011D0009F838E838E819F81092E000CAA0BBB0BEF
:1011E00040E050E02BE030E0841B950B28173907D6
:1011F00008F4EEC3835B9F4FFC010C94720F6FEAFF
:1012000075E081E090E00E946C0160EC75E081E1A6
:1012100090E00E946C0181E090E09F838E83E2C3A6
:10122000109255061092540685E080931301809128
:101230009E06833209F0CFC382E090E09F838E83C5
:10124000CAC380919E06882309F0C7C381E090E05D
:10125000909346068093450681E08093120183E0D7
:1012600090E09F838E83B9C380911201882309F097
:10127000B6C380911D0D90911E0D4AE050E06FE1C4
:101280007DE00E94B71380919C0690919D064AE0F4
:1012900050E06FEB7AE00E94B71380919A0690912C
:1012A0009B06892BC1F48FE19DE09C01F90101901F
:1012B0000020E9F7CF010197821B930B815E924FCB
:1012C00020E23BE2FC013183208320E230E0FC019C
:1012D0003383228359C080919A0690919B0601978F
:1012E000C1F48FE19DE09C01F90101900020E9F734
:1012F000CF010197821B930B815E924F20E23DE26A
:10130000FC013183208320E230E0FC01338322831F
:101310003BC080919A0690919B060297C1F48FE1A1
:101320009DE09C01F90101900020E9F7CF010197B0
:10133000821B930B815E924F20E23AE2FC013183E3
:10134000208320E230E0FC01338322831DC08091A2
:101350009A0690919B060397B9F48FE19DE09C015A
:10136000F90101900020E9F7CF010197821B930B4F
:10137000815E924F20E23FE2FC013183208320E234
:1013800030E0FC01338322836FEB7AE08FE19DE054
:101390000E94AC138FE19DE09C01F90101900020B7
:1013A000E9F7CF010197821B930B815E924F20E2F8
:1013B0003DE3FC013183208320E230E0FC013383F4
:1013C00022830E94BB008CE090E090931C0D8093E0
:1013D0001B0D6FE17DE081E090E00E946C0161ED0A
:1013E00075E081E190E00E946C018091540690913B
:1013F00055064AE050E06FEA7AE00E94B7136FEAC0
:101400007AE088E190E00E946C0180911301882FBE
:1014100090E04AE050E06FE976E00E94B7136FE990
:1014200076E080E290E00E946C0180911B0D90912B
:101430001C0D8093580684E090E09F838E83CFC27A
:1014400020915D0630915E068091A9059091AA05D4
:101450002817390740F089E090E09F838E8381E070
:1014600080934E0648C080919E06882309F443C0AD
:1014700080919E06833221F481E08093470629C043
:1014800080919E068A3299F480915706882309F14B
:101490008091570681508093570680915706882F78
:1014A00090E08F5A994F20E2FC01208312C0809176
:1014B0005706833070F48091570691E0980F90930F
:1014C0005706882F90E020919E068F5A994FFC0175
:1014D000208380911B0D90911C0D61E576E00E94A8
:1014E0006C0169ED75E08FE090E00E946C0185E091
:1014F00090E09F838E8380915D0690915E06C296F8
:1015000090935E0680935D0610925C0610925B06D7
:1015100069C220915D0630915E068091A905909187
:10152000AA052817390740F089E090E09F838E8351
:1015300081E080934E06CFC080919E06882309F0FB
:10154000CAC080914706882309F4C1C010925A0688
:1015500010925906198284E68A8382E08B831AC02E
:101560008B81082E000C990B8F5A994FFC018081BA
:10157000803251F08B81082E000C990B8F5A994FB5
:10158000FC018081882319F489818F5F89838B8195
:1015900081508B838B8188231CF78981833039F4B8
:1015A0008FEF9FEF90935A06809359066BC08A8104
:1015B000082F10E08981882F90E0A0E0B0E0BC0106
:1015C000CD010E94A910DC01CB019C01AD0160E0BE
:1015D00070E080E291E40E94CD11DC01CB0120E0BB
:1015E00030E040E05FE3BC01CD010E94900FDC01E0
:1015F000CB01BC01CD010E947310DC01CB019C0129
:10160000C801B9010E943C0FCB018A831D821C8254
:1016100035C08C819D818F5A994FFC018081882330
:10162000F9F08C819D818F5A994FFC018081882F20
:1016300090E0AC01405351098A81882F90E0489F87
:101640009001499F300D589F300D1124809159060B
:1016500090915A06820F931F90935A0680935906D1
:101660009A818DEC989F812D11248695869586957B
:101670008A838C819D8101969D838C838C819D8141
:1016800003973CF22091590630915A068091190D2A
:1016900090911A0D2817390741F486E090E09F8356
:1016A0008E8381E080934C0607C088E090E09F83A2
:1016B0008E8381E080934D068091190D90911A0DD3
:1016C0004AE050E06FEC7AE00E94B71304C084E077
:1016D00090E09F838E8380915D0690915E06C29616
:1016E00090935E0680935D067DC10E94BB006CED09
:1016F00075E083E090E00E946C0169EE75E083E1A3
:1017000090E00E946C016FEC7AE08DE190E00E9425
:101710006C01809154069091550601969093550660
:101720008093540681E0809312018AE090E09F83C9
:101730008E8358C180915B0690915C06892B71F075
:1017400080915B0690915C06883E934039F08091D1
:101750005B0690915C06803D974069F464EF75E00C
:1017600085E090E00E946C016DEF75E088E190E00B
:101770000E946C0123C080915B0690915C06843FBF
:10178000914071F080915B0690915C068C3D954094
:1017900039F080915B0690915C06843C994019F485
:1017A0000E94BB000BC080915B0690915C06883B59
:1017B0009B4024F083E090E09F838E8380915B06C2
:1017C00090915C06C29690935C0680935B060AC17A
:1017D0000E94BB0060E076E082E090E00E946C0135
:1017E00069EE75E083E190E00E946C016FEC7AE0B5
:1017F0008DE190E00E946C018091130181508093F3
:10180000130181E0809312018AE090E09F838E8330
:10181000E9C08091190D90911A0D4AE050E06FECEB
:101820007AE00E94B7130E94BB006FE076E084E08C
:1018300090E00E946C0169EE75E083E190E00E9407
:101840006C016FEC7AE08DE190E00E946C01809178
:10185000130181508093130181E0809312018AE08B
:1018600090E09F838E83BEC010925E0610925D064C
:10187000109247061092510610925206109253068B
:101880001092570680915B0690915C06C2969093E9
:101890005C0680935B0680915B0690915C068C3DB4
:1018A000954009F09EC080911301882341F48BE09C
:1018B00090E09F838E8381E08093500646C08091A4
:1018C0005406909155060797D9F48091A9059091F7
:1018D000AA0580379741A1F087E090E09F838E832F
:1018E00081E080934F0680E797E19093AA0580936B
:1018F000A90586E08093A70586E08093A80525C00A
:1019000080915406909155060C97D9F48091A905C1
:101910009091AA0588389341A1F087E090E09F83D9
:101920008E8381E080934F0688E893E19093AA0527
:101930008093A90585E08093A70585E08093A8059D
:1019400004C083E090E09F838E8310925C06109227
:101950005B060E94BB0045C00E94BB006AE176E0C6
:1019600081E090E00E946C018091540690915506B0
:101970004AE050E06FEA7AE00E94B7138FEA9AE0FB
:101980009C01F90101900020E9F7CF010197821B2A
:10199000930B8155954F26E0E3E2F6E0DC010190E0
:1019A0000D922A95E1F76FEA7AE089E090E00E94D3
:1019B0006C0169E276E082E190E00E946C01109295
:1019C00046061092450681E090E09F838E830AC010
:1019D0001F821E8207C0000005C0000003C0000077
:1019E00001C000008E819F8127960FB6F894DEBF5C
:1019F0000FBECDBFDF91CF911F910F9108950F932F
:101A00001F93CF93DF93CDB7DEB765970FB6F894EA
:101A1000DEBF0FBECDBF81E290E02FEFFC0120833F
:101A200082E290E0FC01108284E290E02FEFFC0162
:101A3000208385E290E0FC01108287E290E020EFB5
:101A4000FC01208388E290E02FE0FC0120838AE201
:101A500090E02FEFFC0120838BE290E0FC011082EC
:101A60001A82198229C089819A81880F991F880F4B
:101A7000991F8C5E9E4FFC0180819181A281B38170
:101A800022EB3DE947E85FE3BC01CD010E94CD11A7
:101A9000DC01CB0129813A81220F331F220F331F32
:101AA0002155394FF90180839183A283B3838981C2
:101AB0009A8101969A83898389819A818F3F9105C2
:101AC00091F288F288E0E8E3F6E0DE011E960190EC
:101AD0000D928A95E1F784E090E09C878B878FEFE9
:101AE0008D878D858093630689E190E0A0E0B0E06A
:101AF0008093640690936506A0936606B09367068C
:101B00008091640690916506A0916606B091670683
:101B10008093680690936906A0936A06B0936B065B
:101B200087E495E090936D0680936C068D85809395
:101B30006E0681E490E0A0E0B0E080936F069093A1
:101B40007006A0937106B093720680916F06909113
:101B50007006A0917106B0917206809373069093FF
:101B60007406A0937506B093760685EC96E0909384
:101B70007806809377068D858093790682E390E0DE
:101B8000A0E0B0E080937A0690937B06A0937C0659
:101B9000B0937D0680917A0690917B06A0917C0699
:101BA000B0917D0680937E0690937F06A093800679
:101BB000B09381068CED98E0909383068093820623
:101BC0008D858093840681E090E0A0E0B0E0809372
:101BD000850690938606A0938706B0938806809129
:101BE000850690918606A0918706B091880680931D
:101BF000890690938A06A0938B06B0938C068AEF91
:101C000094E090938E0680938D068D8580938F0649
:101C100088EE93E0A0E0B0E0809390069093910668
:101C2000A0939206B09393068091900690919106AE
:101C3000A0919206B0919306809394069093950696
:101C4000A0939606B093970688E998E0909399063A
:101C5000809398068E859F85FC0181819281A38166
:101C6000B4818B839C83AD83BE8381E090E09887B1
:101C70008F8325C08F819885880F991F9E012F5FC4
:101C80003F4F820F931F0D96FC0180819181FC01D3
:101C900021813281438154818B819C81AD81BE81C0
:101CA000BC01CD010E94DF02DC01CB018B839C8350
:101CB000AD83BE838F819885019698878F832F810E
:101CC00038858B859C8528173907A0F28B819C81EC
:101CD000AD81BE81BC01CD010E942C030E945A033C
:101CE0000E94D30460E070E0CB010E9433040E94A4
:101CF000C60080919C0590919D05A0919E05B09194
:101D00009F0580936F0690937006A0937106B09321
:101D100072061A861986A0C089859A85880F991F30
:101D20009E012F5F3F4F820F931F0D96FC01808114
:101D30009181FC01258136814781508589859A856D
:101D4000880F991FBE016F5F7F4F860F971F0D96FB
:101D5000FC0180819181FC0181819281A381B48108
:101D6000281739074A075B0709F045C089859A8516
:101D7000880F991F9E012F5F3F4F820F931F0D9673
:101D8000FC010081118189859A85880F991F9E0128
:101D90002F5F3F4F820F931F0D96FC018081918131
:101DA000FC012185328589859A85880F991FAE01AE
:101DB0004F5F5F4F840F951F0D96FC0180819181CD
:101DC000FC018081082E000C990BF9010995F8019E
:101DD000808389859A85880F991F9E012F5F3F4FC9
:101DE000820F931F0D96FC0180819181FC01158269
:101DF00016821782108689859A85880F991F9E0101
:101E00002F5F3F4F820F931F0D96FC016081718100
:101E100089859A85880F991F9E012F5F3F4F820FFA
:101E2000931F0D96FC0180819181FC0125813681F3
:101E3000478150858B819C81AD81BE81820F931F2C
:101E4000A41FB51FFB0185839683A783B08789856F
:101E50009A8501969A87898729853A858B859C85FD
:101E60002817390708F458CF0000809140068823CE
:101E7000E1F3109240063DCF97FB072E16F4009435
:101E800007D077FD09D00E947B0F07FC05D03EF4F8
:101E9000909581959F4F0895709561957F4F089516
:101EA000A1E21A2EAA1BBB1BFD010DC0AA1FBB1F5E
:101EB000EE1FFF1FA217B307E407F50720F0A21BD0
:101EC000B30BE40BF50B661F771F881F991F1A943D
:101ED00069F760957095809590959B01AC01BD0167
:101EE000CF010895EE0FFF1F0024001C0BBE0790CA
:101EF000F691E02D0994AA1BBB1B51E107C0AA1F54
:101F0000BB1FA617B70710F0A61BB70B881F991F9A
:101F10005A95A9F780959095BC01CD010895505828
:101F2000BB27AA270E94A70F0C9421110E9413110E
:101F300038F00E941A1120F039F49F3F19F426F46A
:101F40000C9410110EF4E095E7FB0C940A11E92FA4
:101F50000E94321158F3BA17620773078407950776
:101F600020F079F4A6F50C9454110EF4E0950B2EA4
:101F7000BA2FA02D0B01B90190010C01CA01A001DB
:101F80001124FF27591B99F0593F50F4503E68F136
:101F90001A16F040A22F232F342F4427585FF3CF77
:101FA000469537952795A795F0405395C9F77EF448
:101FB0001F16BA0B620B730B840BBAF09150A1F091
:101FC000FF0FBB1F661F771F881FC2F70EC0BA0F17
:101FD000621F731F841F48F4879577956795B7959F
:101FE000F7959E3F08F0B0CF9395880F08F099279A
:101FF000EE0F9795879508950E94E61008F481E00A
:1020000008950E9415100C9421110E941A1158F085
:102010000E94131140F029F45F3F29F00C940A113B
:1020200051110C9455110C9410110E94321168F347
:102030009923B1F3552391F3951B550BBB27AA2781
:1020400062177307840738F09F5F5F4F220F331FBB
:10205000441FAA1FA9F335D00E2E3AF0E0E832D083
:1020600091505040E695001CCAF72BD0FE2F29D086
:10207000660F771F881FBB1F261737074807AB0758
:10208000B0E809F0BB0B802DBF01FF2793585F4FCD
:102090003AF09E3F510578F00C940A110C945511BA
:1020A0005F3FE4F3983ED4F3869577956795B795AF
:1020B000F7959F5FC9F7880F911D9695879597F9BA
:1020C0000895E1E0660F771F881FBB1F6217730733
:1020D0008407BA0720F0621B730B840BBA0BEE1F48
:1020E00088F7E09508950E947A106894B1110C94D5
:1020F000551108950E943A1188F09F5798F0B92F12
:102100009927B751B0F0E1F0660F771F881F991F2C
:102110001AF0BA95C9F714C0B13091F00E94541169
:10212000B1E008950C945411672F782F8827B85F79
:1021300039F0B93FCCF3869577956795B395D9F784
:102140003EF490958095709561957F4F8F4F9F4F8E
:102150000895E89409C097FB3EF49095809570959A
:1021600061957F4F8F4F9F4F9923A9F0F92F96E9E3
:10217000BB279395F695879577956795B795F11158
:10218000F8CFFAF4BB0F11F460FF1BC06F5F7F4FF5
:102190008F4F9F4F16C0882311F096E911C0772307
:1021A00021F09EE8872F762F05C0662371F096E810
:1021B000862F70E060E02AF09A95660F771F881FDF
:1021C000DAF7880F9695879597F90895990F000883
:1021D000550FAA0BE0E8FEEF16161706E807F907F9
:1021E000C0F012161306E407F50798F0621B730B94
:1021F000840B950B39F40A2661F0232B242B252B15
:1022000021F408950A2609F4A140A6958FEF811DB7
:10221000811D089597F99F6780E870E060E0089558
:102220009FEF80EC089500240A94161617061806EE
:102230000906089500240A941216130614060506CA
:102240000895092E0394000C11F4882352F0BB0F5B
:1022500040F4BF2B11F460FF04C06F5F7F4F8F4FBE
:102260009F4F089557FD9058440F551F59F05F3FF9
:1022700071F04795880F97FB991F61F09F3F79F0A8
:1022800087950895121613061406551FF2CF46952A
:10229000F1DF08C0161617061806991FF1CF8695AC
:1022A0007105610508940895E894BB276627772790
:1022B000CB0197F908950E94E61008F48FEF089576
:1022C0000E9473110C9421110E94131138F00E9486
:1022D0001A1120F0952311F00C940A110C9410118E
:1022E00011240C9455110E94321170F3959FC1F383
:1022F000950F50E0551F629FF001729FBB27F00DB4
:10230000B11D639FAA27F00DB11DAA1F649F662708
:10231000B00DA11D661F829F2227B00DA11D621F57
:10232000739FB00DA11D621F839FA00D611D221F11
:10233000749F3327A00D611D231F849F600D211DF5
:10234000822F762F6A2F11249F5750409AF0F1F078
:1023500088234AF0EE0FFF1FBB1F661F771F881FE1
:1023600091505040A9F79E3F510580F00C940A11FE
:102370000C9455115F3FE4F3983ED4F3869577951E
:102380006795B795F795E7959F5FC1F7FE2B880F87
:10239000911D9695879597F90895FA01EE0FFF1F05
:1023A000309621053105A1F16115710561F4803880
:1023B000BFE39B0749F168949038810561F080384C
:1023C000BFEF9B0741F099234AF5FF3FE105310537
:1023D000210519F1E8940894E795D901AA2329F475
:1023E000AB2FBE2FF85FD0F310C0FF5F70F4A6953F
:1023F000E0F7F73950F019F0FF3A38F49F779F93E0
:102400000DD00F9007FC9058089546F00C941011D1
:1024100060E070E080E89FE308954FE79F775F9367
:102420004F933F932F930E94C8122F913F914F914A
:102430005F910E9460110C94251229F416F00C94FF
:102440000A110C9454110C9410110E943A11A8F323
:102450009638A0F707F80F92E8942BE33AEA48EB96
:102460005FE70E9476110F920F920F924DB75EB701
:102470000F920E941013E2EBF0E00E9457124F916E
:102480005F91EF91FF91E595EE1FFF1F49F0FE5719
:10249000E0684427EE0F441FFA95E1F74195550B8C
:1024A0000E948A120F9007FE0C947E120895DF930B
:1024B000CF931F930F93FF92EF92DF927B018C01DA
:1024C000689406C0DA2EEF010E947311FE01E894B1
:1024D000A5912591359145915591A6F3EF010E9463
:1024E000A70FFE019701A801DA9469F7DF90EF903A
:1024F000FF900F911F91CF91DF9108959B01AC0147
:1025000060E070E080E89FE30C9401100C940A11E5
:102510000C9444130E943A11D8F39923C9F3940FF1
:10252000511DA3F39150504094F059F0882332F09C
:10253000660F771F881F91505040C1F79E3F51058D
:102540002CF7880F911D9695879597F908955F3F11
:10255000ACF0983E9CF0BB27869577956795B7952C
:1025600008F4B1609395C1F7BB0F58F711F460FF01
:10257000E8CF6F5F7F4F8F4F9F4FE3CF0C94551184
:1025800016F00C9444130C94101168940C940A11D6
:102590000E943A11A8F39923C1F3AEF3DF93CF93CE
:1025A0001F930F93FF92C92FDD2788232AF02197CD
:1025B000660F771F881FDAF720E030E040E85FEB16
:1025C0009FE3883920F0803E38F021968F770E9473
:1025D000900FEAEDF0E004C00E94900FE7E0F1E018
:1025E0000E9457128B01BE01EC01FB2E6F5771093F
:1025F0007595771F880B990B0E94AB1028E132E785
:1026000041E35FE30E947311AF2D9801AE01FF908B
:102610000F911F91CF91DF910E94A70F0C94211170
:10262000FA01DC01AA0FBB1F9B01AC01BF5728F4C4
:10263000222733274427507820C0B75190F4AB2F7E
:102640000024469537952795011CA395D2F30020C9
:1026500071F0220F331F441FB395DAF30ED00C94A0
:102660008F0F61307105A0E88A07B94630F49B01ED
:10267000AC016627772788279078309621F0208351
:1026800031834283538308959F3F31F0915020F46A
:10269000879577956795B795880F911D969587953E
:1026A00097F908958F929F92AF92BF92CF92DF9247
:1026B000EF92FF92CF93DF93EC01688179818A8159
:1026C0009B81611571058105910521F464E279ED25
:1026D0008BE597E02DE133EF41E050E00E94F713E6
:1026E00049015A019B01AC01A7EAB1E40E9416140A
:1026F0006B017C01ACEEB4EFA50194010E9424149F
:10270000DC01CB018C0D9D1DAE1DBF1DB7FF03C0AD
:102710000197A109B04888839983AA83BB839F77D7
:10272000DF91CF91FF90EF90DF90CF90BF90AF906F
:102730009F908F9008950C9452138BEA95E00C941F
:102740005213A0E0B0E08093AB059093AC05A0934A
:10275000AD05B093AE050895FB01DC010D9000209E
:10276000E9F7119701900D920020E1F708954532A5
:10277000510520F4423010F00C94C213FB0110827A
:10278000CB010895BB274A3031F4992322F4BDE2EE
:10279000909581959F4F0C94CE13BB27FB01552735
:1027A000AA27880F991FAA1FA41710F0A41B8395AE
:1027B0005051B9F7A05DAA3308F0A95DA193009725
:1027C00079F7B111B1931192CB010C94E713DC01AD
:1027D000FC01672F71917723E1F7329704C07C9158
:1027E0006D9370836291AE17BF07C8F30895052EED
:1027F00097FB1EF400940E940E1457FD07D00E9410
:10280000500F07FC03D04EF40C940E1450954095D5
:10281000309521953F4F4F4F5F4F0895909580958C
:10282000709561957F4F8F4F9F4F08950E94291497
:10283000A59F900DB49F900DA49F800D911D112414
:102840000895B7FF0C9416140E941614821B930B64
:102850000895A29FB001B39FC001A39F700D811D79
:102860001124911DB29F700D811D1124911D089599
:04287000F894FFCF0A
:102874000100000000000002000000000A04000043
:1028840000000105A4F0F643A4F0F64300000000A4
:1028940000000000A4F0F64300000000A4F0F6439A
:1028A40000000000A4F0F643A4F0F643000000008A
:1028B4000000000000901B4400901B440000000036
:1028C400000000005CFF38445CFF38445CFF38447F
:1028D4005CFF38445CFF38445CFF3844000000006F
:1028E4000000000000901B4400901B4400901B4417
:1028F40000901B4400901B4400901B440000000007
:102904000000000000D0244400D024440000000053
:102914000000000000D024440000000000D0244443
:102924000000000000D0244400D024440000000033
:1029340000000000AE970A44AE970A44000000006D
:1029440000000000A4F0F643A4F0F643A4F0F6431C
:10295400A4F0F643A4F0F643A4F0F643000000000C
:10296400000000007B14E9437B14E9437B14E94332
:102974007B14E9437B14E9437B14E9430000000022
:1029840000000000A4F0F643A4F0F64300000000A9
:1029940000000000A4F0F64300000000A4F0F64399
:1029A40000000000A4F0F643A4F0F6430000000089
:1029B4000000000000901B4400901B440000000035
:1029C400000000005CFF38445CFF38445CFF38447E
:1029D4005CFF38445CFF38445CFF3844000000006E
:1029E4000000000000901B4400901B4400901B4416
:1029F40000901B4400901B4400901B440000000006
:102A04000000000000D0244400D024440000000052
:102A14000000000000D024440000000000D0244442
:102A24000000000000D0244400D024440000000032
:102A3400000000000AA74F440AA74F44000000000A
:102A4400000000005CFF38445CFF38445CFF3844FD
:102A54005CFF38445CFF38445CFF384400000000ED
:102A6400000000005CFF38445CFF384400000000B4
:102A7400000000001F1569441F1569440000000090
:102A84000000000048F1764448F17644000000005C
:102A94000000000048F176440000000048F176444C
:102AA4000000000048F1764448F17644000000003C
:102AB400000000001F1569441F1569440000000050
:102AC400000000005CFF38445CFF38445CFF38447D
:102AD4005CFF38445CFF38445CFF3844000000006D
:102AE4000000000000901B4400901B440000000004
:102AF400000000005CFF38445CFF38440000000024
:102B0400000000000AA74F440AA74F440000000039
:102B1400000000000AA74F44000000000AA74F4429
:102B2400000000000AA74F440AA74F440000000019
:102B3400000000005CFF38445CFF384400000000E3
:102B44000000000000901B4400901B4400901B44B4
:102B540000901B4400901B4400901B4400000000A4
:102B640000000000AE970A44AE970A44000000003B
:102B74000000000000901B4400901B440000000073
:102B84000000000000D0244400D0244400000000D1
:102B94000000000000D024440000000000D02444C1
:102BA4000000000000D0244400D0244400000000B1
:102BB4000000000000901B4400901B440000000033
:102BC40000000000AE970A44AE970A44AE970A4448
:102BD400AE970A44AE970A44AE970A440000000038
:102BE4000000000000D0244400D0244400D0244439
:102BF40000D0244400D0244400D024440000000029
:102C04000000000000901B4400901B4400901B44F3
:102C140000901B4400901B4400901B4400901B44F4
:102C240000901B4400901B4400901B4400000000D3
:102C340000000000AE970A44AE970A44000000006A
:102C440000000000A4F0F643A4F0F643A4F0F64319
:102C5400A4F0F643A4F0F643A4F0F6430000000009
:102C6400000000007B14E9437B14E9437B14E9432F
:102C74007B14E9437B14E9437B14E943000000001F
:102C840000000000719D2E440000000000D0244488
:102C9400719D2E44719D2E44719D2E44719D2E4430
:102CA400719D2E447BD49243000000000A978A430E
:102CB40000000000A4D0824300000000A4F076438A
:102CC400A4F07643A4F07643A4F07643A4F07643CC
:102CD400A4F07643AE970A445CCF02435CCF024330
:102CE4005CCF02435CCF02435CCF02435CCF024320
:102CF4005CCF024300007A430000000000007A43E6
:102D04000000000000007A430000000041000000C1
:102D14004143474F5FEFFF0707581B010000002A9C
:102D24002A4D6174682D2D4D61737465722A2A00D1
:102D34005072657373202320746F20706C61792145
:102D44000053636F72653A2000202000436F727253
:102D54006563742121203A2900536F6C7574696F7F
:102D64006E3A20005350454544494E4700555000A3
:102D7400496E636F72726563742E2E203A28005474
:102D8400696D652773207570210046494E49534883
:102D94002120002070747321005265737461727471
:102DA40020776974682023008406630679066E061A
:00000001FF
