:100000000C9446000C9465000C9465000C946500FB
:100010000C9465000C9465000C9465000C946500CC
:100020000C9465000C9465000C9465000C946500BC
:100030000C9465000C942C030C9465000C946500E2
:100040000C9465000C9465000C9465000C9465009C
:100050000C9465000C9465000C9465000C9465008C
:100060000C9465000C9465000C9465000C9465007C
:100070000C9465000C9465000C9465000C9465006C
:100080000C9465000C9465000C94650011241FBE4F
:10009000CFEFD0E4DEBFCDBF11E0A0E0B1E0ECEEE9
:1000A000FAE000E00BBF02C007900D92AC31B1073F
:1000B000D9F721E0ACE1B1E001C01D92A935B2074A
:1000C000E1F70E94F5030C9474050C940000CF93A3
:1000D000DF93CDB7DEB781E00E948E000000DF9194
:1000E000CF910895CF93DF93CDB7DEB784E690E04C
:1000F0000E94320188E30E948E0086E00E948E00FA
:100100008FE00E948E0081E00E948E008AE090E0E5
:100110000E9432010000DF91CF910895CF93DF93C9
:100120001F92CDB7DEB789838BE290E02BE230E0FF
:10013000F90120812F7BFC01208388E290E0298156
:10014000FC0120838BE290E02BE230E0F90120817A
:100150002068FC01208300008BE290E02BE230E07D
:10016000F90120812F77FC01208382E090E00E943A
:10017000320100000F90DF91CF910895CF93DF936C
:100180001F92CDB7DEB789838BE290E02BE230E09F
:10019000F90120812064FC01208388E290E029811C
:1001A000FC0120838BE290E02BE230E0F90120811A
:1001B0002068FC01208300008BE290E02BE230E01D
:1001C000F90120812F77FC01208381E090E00E94DB
:1001D000320100000F90DF91CF910895CF93DF930C
:1001E00000D000D0CDB7DEB78A837C836B830E94BA
:1001F00067008A81898311C0898191E0980F998372
:100200000E941B018B819C819C012F5F3F4F3C838F
:100210002B83FC0180810E94BE008B819C81FC01AC
:100220008081882349F700000F900F900F900F9066
:10023000DF91CF910895CF93DF931F92CDB7DEB7B3
:1002400089838981813128F4898181580E948E00B7
:1002500004C0898181550E948E0000000F90DF91BB
:10026000CF910895CF93DF9300D000D000D0CDB7C9
:10027000DEB79E838D831A82198213C01C821B8273
:1002800006C000008B819C8101969C838B838B81AF
:100290009C8187309340ACF389819A8101969A833F
:1002A000898329813A818D819E812817390734F30A
:1002B000000026960FB6F894DEBF0FBECDBFDF91CB
:1002C000CF910895CF93DF9300D01F92CDB7DEB7C3
:1002D00089836A834B838B81882371F08A81282FDD
:1002E00030E081E090E002C0880F991F2A95E2F784
:1002F000982F8981892B0EC08A81282F30E081E0D8
:1003000090E002C0880F991F2A95E2F7982F9095E8
:10031000898189230F900F900F90DF91CF910895DD
:10032000CF93DF9300D0CDB7DEB789836A838A810C
:10033000282F30E081E090E002C0880F991F2A95B5
:10034000E2F7982F898189230F900F90DF91CF9149
:1003500008950F931F93CF93DF93CDB7DEB708E2D5
:1003600010E040E064E08FEF0E946201F8018083BA
:10037000000086E290E0FC018081809560E00E94B0
:100380009001882311F081E399C086E290E0FC019E
:100390008081809561E00E949001882311F084E3C0
:1003A0008DC086E290E0FC018081809562E00E9431
:1003B0009001882311F087E381C086E290E0FC0180
:1003C0008081809563E00E949001882311F08AE289
:1003D00075C008E210E040E065E08FEF0E94620126
:1003E000F8018083000086E290E0FC018081809526
:1003F00060E00E949001882311F082E35FC086E2F2
:1004000090E0FC018081809561E00E94900188234A
:1004100011F085E353C086E290E0FC018081809575
:1004200062E00E949001882311F088E347C086E2D1
:1004300090E0FC018081809563E00E949001882318
:1004400011F080E33BC008E210E040E066E08FEF8F
:100450000E946201F8018083000086E290E0FC01C6
:100460008081809560E00E949001882311F083E3F1
:1004700025C086E290E0FC018081809561E00E94C9
:100480009001882311F086E319C086E290E0FC0118
:100490008081809562E00E949001882311F089E3B9
:1004A0000DC086E290E0FC018081809563E00E94AF
:1004B0009001882311F083E201C080E0DF91CF91A9
:1004C0001F910F910895CF93DF93CDB7DEB72C978F
:1004D0000FB6F894DEBF0FBECDBF6D837E838F83D2
:1004E000988729873A874B875C878D819E81AF816A
:1004F000B88529853A854B855C85BC01CD010E9474
:100500005205DC01CB0189839A83AB83BC8389814B
:100510009A81AB81BC81892B8A2B8B2B29F489850D
:100520009A85AB85BC8511C089859A85AB85BC85CC
:100530008D839E83AF83B88789819A81AB81BC818B
:1005400089879A87AB87BC87D0CFBC01CD012C9619
:100550000FB6F894DEBF0FBECDBFDF91CF910895E7
:10056000CF93DF9300D000D0CDB7DEB769837A8315
:100570008B839C8389819A81AB81BC8180930001AC
:1005800090930101A0930201B093030180910001B7
:1005900090910101A0910201B091030180931D018E
:1005A00090931E01A0931F01B093200100000F90B3
:1005B0000F900F900F90DF91CF910895CF93DF931D
:1005C000CDB7DEB781E890E02BE0FC01208388E81E
:1005D00090E02DE730E0FC01318320838FE690E04E
:1005E00022E0FC01208384E890E0FC01118210826B
:1005F0008091000190910101A0910201B09103014D
:1006000080931D0190931E01A0931F01B0932001C0
:100610008FE590E02FE530E0F90120812068FC01B2
:1006200020830000DF91CF910895CF93DF93CDB762
:10063000DEB781E890E0FC0110820000DF91CF91ED
:100640000895CF93DF93CDB7DEB781E080931C018F
:100650000000DF91CF9108951F920F9200905F00EC
:100660000F92112400905B000F922F933F934F93B2
:100670005F936F937F938F939F93AF93BF93EF930A
:10068000FF93CF93DF93CDB7DEB780911D0190919B
:100690001E01A0911F01B09120010197A109B1098C
:1006A00080931D0190931E01A0931F01B093200120
:1006B00080911D0190911E01A0911F01B091200118
:1006C000892B8A2B8B2B91F40E94210380910001AE
:1006D00090910101A0910201B091030180931D014D
:1006E00090931E01A0931F01B09320010000DF91A1
:1006F000CF91FF91EF91BF91AF919F918F917F919A
:100700006F915F914F913F912F910F9000925B00FD
:100710000F9000925F000F901F901895CF93DF937A
:1007200000D01F92CDB7DEB789837B836A8389812E
:100730008A3031F48A819B81BC018DE00E948E0356
:1007400080EC90E0FC018081882F90E080729927F6
:10075000892BB1F386EC90E02981FC01208380E0B5
:1007600090E00F900F900F90DF91CF910895CF936D
:10077000DF9300D0CDB7DEB79A8389830E94A901A9
:100780008093580189819A818130910551F082309E
:100790009105A9F0892B01F581E090E09A83898386
:1007A0001DC080915801882329F082E090E09A834F
:1007B000898314C081E090E09A8389830FC080917F
:1007C0005801882329F481E090E09A83898304C04A
:1007D00082E090E09A8389831A82198289819A81C2
:1007E0000F900F90DF91CF9108950F931F93CF93A8
:1007F000DF93CDB7DEB765970FB6F894DEBF0FBEB7
:10080000CDBF81E290E0FC01108282E290E02FEF08
:10081000FC01208384E290E02FEFFC01208385E23D
:1008200090E0FC01108287E290E0FC01108288E2F7
:1008300090E02FEFFC0120838AE290E02FEFFC0193
:1008400020838BE290E0FC0110828AE0E2E1F1E09B
:10085000DE011C9601900D928A95E1F785E090E00B
:100860009A8789878FEF8B878B858093210182E31D
:1008700090E0A0E0B0E08093220190932301A09348
:100880002401B09325018091220190912301A09130
:100890002401B09125018093260190932701A09314
:1008A0002801B093290187EB93E090932B0180936B
:1008B0002A018C859D85FC0181819281A381B4816F
:1008C00089839A83AB83BC8381E090E09E838D8390
:1008D00025C08D819E81880F991F9E012F5F3F4FFC
:1008E000820F931F0B96FC0180819181FC01218175
:1008F00032814381548189819A81AB81BC81BC0161
:10090000CD010E946302DC01CB0189839A83AB8312
:10091000BC838D819E8101969E838D832D813E8136
:1009200089859A8528173907A0F289819A81AB8138
:10093000BC81BC01CD010E94B0020E94DE0218867B
:100940001F82A0C08F819885880F991F9E012F5FFD
:100950003F4F820F931F0B96FC0180819181FC0118
:1009600025813681478150858F819885880F991F11
:10097000BE016F5F7F4F860F971F0B96FC01808132
:100980009181FC0181819281A381B481281739076B
:100990004A075B0709F045C08F819885880F991F2A
:1009A0009E012F5F3F4F820F931F0B96FC0100812A
:1009B00011818F819885880F991F9E012F5F3F4F6E
:1009C000820F931F0B96FC0180819181FC01218590
:1009D00032858F819885880F991FAE014F5F5F4FD9
:1009E000840F951F0B96FC0180819181FC01808111
:1009F000082E000C990BF9010995F80180838F816D
:100A00009885880F991F9E012F5F3F4F820F931F7C
:100A10000B96FC0180819181FC0115821682178260
:100A200010868F819885880F991F9E012F5F3F4FF9
:100A3000820F931F0B96FC01608171818F819885D5
:100A4000880F991F9E012F5F3F4F820F931F0B96B8
:100A5000FC0180819181FC0125813681478150858F
:100A600089819A81AB81BC81820F931FA41FB51F1E
:100A7000FB0185839683A783B0878F819885019634
:100A800098878F832F81388589859A85281739071C
:100A900008F458CF000080911C018823E1F31092E4
:100AA0001C014DCFA1E21A2EAA1BBB1BFD010DC0DC
:100AB000AA1FBB1FEE1FFF1FA217B307E407F5070E
:100AC00020F0A21BB30BE40BF50B661F771F881FEA
:100AD000991F1A9469F760957095809590959B0180
:0C0AE000AC01BD01CF010895F894FFCFD8
:100AEC000100000000000002000000008E03000066
:0C0AFC00000021014D01420137012C01D6
:00000001FF
