:100000000C9491000C94B0000C94B0000C94B000CF
:100010000C94B0000C94B0000C94B0000C94B000A0
:100020000C94B0000C94B0000C94B0000C94B00090
:100030000C94B0000C949F030C94B0000C94B0008E
:100040000C94B0000C94B0000C94B0000C94B00070
:100050000C94B0000C94B0000C94B0000C94B00060
:100060000C94B0000C94B0000C94B0000C94B00050
:100070000C94B0000C94B0000C94B0000C94B00040
:100080000C94B0000C94B0000C94B0001006210643
:100090002B063E062A07910769088E08AF08D0088C
:1000A00007634236B79BD8A71A39685618AEBAAB61
:1000B000558C1D3CB7CC5763BD6DEDFD753EF617F5
:1000C0007231BF000000803F08000000BE9224494A
:1000D000123EABAAAA2ABECDCCCC4C3E000000807A
:1000E000BEABAAAAAA3E00000000BF000000803FED
:1000F0000000000000084178D3BB4387D1133D19AD
:100100000E3CC3BD4282AD2B3E68EC8276BED98FD9
:10011000E1A93E4C80EFFFBE01C4FF7F3F0000001D
:10012000000011241FBECFEFD0E4DEBFCDBF11E031
:10013000A0E0B1E0E8E6FFE100E00BBF02C00790FD
:100140000D92A039B107D9F724E0A0E9B1E001C0D0
:100150001D92A037B207E1F70E9427090C94B20F55
:100160000C940000CF93DF93CDB7DEB781E00E94FF
:10017000D6000000DF91CF910895CF93DF93CDB7E4
:10018000DEB784E690E00E94A50188E30E94D600D5
:100190008CE00E94D60081E00E94D6008AE090E0C8
:1001A0000E94A5010000DF91CF910895CF93DF93C6
:1001B0001F92CDB7DEB789838BE290E02BE230E06F
:1001C000F90120812E7FFC01208382E290E02981C9
:1001D000FC0120838BE290E02BE230E0F9012081EA
:1001E0002460FC01208300008BE290E02BE230E0F1
:1001F000F90120812B7FFC01208382E090E00E94A6
:10020000A50100000F90DF91CF910895CF93DF9368
:100210001F92CDB7DEB789838BE290E02BE230E00E
:10022000F90120812160FC01208382E290E0298194
:10023000FC0120838BE290E02BE230E0F901208189
:100240002460FC01208300008BE290E02BE230E090
:10025000F90120812B7FFC01208381E090E00E9446
:10026000A50100000F90DF91CF910895CF93DF9308
:1002700000D000D0CDB7DEB78A837C836B830E9429
:10028000B2008A81898311C0898191E0980F998396
:100290000E948E018B819C819C012F5F3F4F3C838C
:1002A0002B83FC0180810E9406018B819C81FC01D3
:1002B0008081882349F700000F900F900F900F90D6
:1002C000DF91CF910895CF93DF9300D000D0CDB7C9
:1002D000DEB78A837C836B838A81898311C089819D
:1002E00091E0980F99830E948E018B819C819C01E3
:1002F0002F5F3F4F3C832B83FC0180810E940601CE
:100300008B819C81FC018081882349F700000F903C
:100310000F900F900F90DF91CF910895CF93DF93BF
:100320001F92CDB7DEB789838981813128F4898115
:1003300081580E94D60004C0898181550E94D60050
:1003400000000F90DF91CF910895CF93DF9300D0FD
:1003500000D000D0CDB7DEB79E838D831A8219827C
:1003600013C01C821B8206C000008B819C810196F9
:100370009C838B838B819C8187309340ACF38981F4
:100380009A8101969A83898329813A818D819E8100
:100390002817390734F3000026960FB6F894DEBF0D
:1003A0000FBECDBFDF91CF910895CF93DF9300D0E3
:1003B0001F92CDB7DEB789836A834B838B818823F5
:1003C00071F08A81282F30E081E090E002C0880F30
:1003D000991F2A95E2F7982F8981892B0EC08A816F
:1003E000282F30E081E090E002C0880F991F2A9505
:1003F000E2F7982F9095898189230F900F900F90A5
:10040000DF91CF910895CF93DF9300D0CDB7DEB7C2
:1004100089836A838A81282F30E081E090E002C0DE
:10042000880F991F2A95E2F7982F898189230F90C9
:100430000F90DF91CF9108950F931F93CF93DF9388
:10044000CDB7DEB708E210E040E064E08FEF0E9435
:10045000D501F8018083000086E290E0FC018081F4
:10046000809560E00E940302882311F081E399C027
:1004700086E290E0FC018081809561E00E940302A9
:10048000882311F084E38DC086E290E0FC01808136
:10049000809562E00E940302882311F087E381C007
:1004A00086E290E0FC018081809563E00E94030277
:1004B000882311F08AE275C008E210E040E065E0B0
:1004C0008FEF0E94D501F8018083000086E290E062
:1004D000FC018081809560E00E940302882311F076
:1004E00082E35FC086E290E0FC018081809561E05C
:1004F0000E940302882311F085E353C086E290E056
:10050000FC018081809562E00E940302882311F043
:1005100088E347C086E290E0FC018081809563E03B
:100520000E940302882311F080E33BC008E210E040
:1005300040E066E08FEF0E94D501F8018083000063
:1005400086E290E0FC018081809560E00E940302D9
:10055000882311F083E325C086E290E0FC018081CE
:10056000809561E00E940302882311F086E319C0A0
:1005700086E290E0FC018081809562E00E940302A7
:10058000882311F089E30DC086E290E0FC018081B0
:10059000809563E00E940302882311F083E201C08A
:1005A00080E0DF91CF911F910F910895CF93DF935A
:1005B000CDB7DEB72C970FB6F894DEBF0FBECDBF18
:1005C0006D837E838F83988729873A874B875C87E3
:1005D0008D819E81AF81B88529853A854B855C8563
:1005E000BC01CD010E94F80ADC01CB0189839A830A
:1005F000AB83BC8389819A81AB81BC81892B8A2B97
:100600008B2B29F489859A85AB85BC8511C089859A
:100610009A85AB85BC858D839E83AF83B88789819E
:100620009A81AB81BC8189879A87AB87BC87D0CF01
:10063000BC01CD012C960FB6F894DEBF0FBECDBF26
:10064000DF91CF910895CF93DF9300D000D0CDB745
:10065000DEB769837A838B839C8389819A81AB819E
:10066000BC818093000190930101A0930201B0939B
:1006700003018091000190910101A0910201B091CC
:1006800003018093910190939201A0939301B09301
:10069000940100000F900F900F900F90DF91CF9179
:1006A0000895CF93DF93CDB7DEB781E890E02BE0DC
:1006B000FC01208388E890E02DE730E0FC013183E5
:1006C00020838FE690E022E0FC01208384E890E024
:1006D000FC01118210828091000190910101A09192
:1006E0000201B09103018093910190939201A09334
:1006F0009301B09394018FE590E02FE530E0F9018C
:1007000020812068FC0120830000DF91CF910895B3
:10071000CF93DF93CDB7DEB781E890E0FC01108284
:100720000000DF91CF910895CF93DF93CDB7DEB76F
:1007300081E0809390010000DF91CF9108951F9296
:100740000F9200905F000F92112400905B000F92B7
:100750002F933F934F935F936F937F938F939F93C9
:10076000AF93BF93EF93FF93CF93DF93CDB7DEB7F4
:100770008091910190919201A0919301B091940187
:100780000197A109B1098093910190939201A093DF
:100790009301B09394018091910190919201A09165
:1007A0009301B0919401892B8A2B8B2B91F40E9499
:1007B00094038091000190910101A0910201B091F8
:1007C00003018093910190939201A0939301B093C0
:1007D00094010000DF91CF91FF91EF91BF91AF9114
:1007E0009F918F917F916F915F914F913F912F9149
:1007F0000F9000925B000F9000925F000F901F908F
:100800001895CF93DF9300D01F92CDB7DEB78983C1
:100810007B836A8389818A3031F48A819B81BC0120
:100820008DE00E94010480EC90E0FC018081882F23
:1008300090E080729927892BB1F386EC90E02981B2
:10084000FC01208380E090E00F900F900F90DF91EB
:10085000CF910895CF93DF9300D0CDB7DEB79A83C1
:1008600089830E941C028093DF0189819A818130F3
:10087000910551F082309105A9F0892B01F581E0B5
:1008800090E09A8389831DC08091DF01882329F03D
:1008900082E090E09A83898314C081E090E09A839B
:1008A00089830FC08091DF01882329F481E090E0E3
:1008B0009A83898304C082E090E09A8389831A82B4
:1008C000198289819A810F900F90DF91CF910895BD
:1008D000CF93DF93CDB7DEB72A970FB6F894DEBF7C
:1008E0000FBECDBF9A87898789859A85813091050A
:1008F00009F44AC08230910509F450C0892B09F0EF
:100900005DC11A8219822FC01C821B8223C04981BB
:100910005A818B819C81489F9001499F300D589F3F
:10092000300D112489819A8161E1689FA001699F3E
:10093000500D11248B819C81840F951F880F991F66
:10094000885E9D4FFC01318320838B819C810196C1
:100950009C838B838B819C814197CCF289819A8186
:1009600001969A83898389819A8141976CF280E00C
:1009700090E00E94D10ADC01CB010E941B0F81E0B4
:1009800090E09A8789871EC180911201882309F41B
:1009900018C182E090E09A87898713C10E94170FDF
:1009A00083709078992324F401978C6F9F6F019640
:1009B0009093DC018093DB018091DB019091DC015D
:1009C0008130910599F1823091051CF4892B49F011
:1009D000EBC08230910509F46FC0039709F49EC003
:1009E000E3C00E94170F21E830E0B9010E94E40A39
:1009F00090935F0480935E040E94170F21E830E01B
:100A0000B9010E94E40A9093DE018093DD012091F8
:100A10005E0430915F048091DD019091DE01820FD0
:100A2000931F90935B0480935A04BEC00E94170FDB
:100A300021E830E0B9010E94E40A90935F048093BA
:100A40005E040E94170F21E830E0B9010E94E40A19
:100A50009093DE018093DD0120915E0430915F046C
:100A60008091DD019091DE0128173907A4F480916F
:100A70005E0490915F049E838D838091DD0190914F
:100A8000DE0190935F0480935E048D819E8190933C
:100A9000DE018093DD0120915E0430915F0480913E
:100AA000DD019091DE01A901481B590BCA01909309
:100AB0005B0480935A0478C00E94170F21E130E054
:100AC000B9010E94E40A90935F0480935E040E943F
:100AD000170F21E130E0B9010E94E40A9093DE0192
:100AE0008093DD0140915E0450915F048091DD01AF
:100AF0009091DE0161E1649F9001659F300D1124AA
:100B0000820F931F880F991F885E9D4FFC01808183
:100B1000918190935B0480935A0446C00E94170F02
:100B200021E130E0B9010E94E40A90935F048093D0
:100B30005E040E94170F21E130E0B9010E94E40A2F
:100B40009093DE018093DD0140915E0450915F043B
:100B50008091DD019091DE0161E1649F9001659FCC
:100B6000300D1124820F931F880F991F885E9D4FAF
:100B7000FC018081918190935B0480935A04809161
:100B80005E0490915F0498878F8380915A049091BE
:100B90005B0490935F0480935E048F8198859093AB
:100BA0005B0480935A0400001092120181E080934C
:100BB000970181E090E09A87898704C01A86198698
:100BC00001C0000089859A852A960FB6F894DEBF89
:100BD0000FBECDBFDF91CF9108950F931F93CF9399
:100BE000DF93CDB7DEB727970FB6F894DEBF0FBE01
:100BF000CDBF9F838E838E819F81092E000CAA0B0F
:100C0000BB0B40E050E029E030E0841B950B281737
:100C1000390708F401C38A5B9F4FFC010C941A0B3F
:100C200068E171E081E090E00E94630169E271E0B7
:100C300081E190E00E94630181E090E09F838E83D8
:100C4000F9C28091DF01833209F0E9C282E090E0CD
:100C50009F838E83E4C28091DF01882309F0E1C283
:100C600081E090E0909396018093950181E08093DC
:100C7000120183E090E09F838E83D3C280911201A2
:100C8000882309F0D0C280915E0490915F044AE00D
:100C900050E060E674E00E94310F8091DD01909198
:100CA000DE014AE050E060E072E00E94310F809186
:100CB000DB019091DC01892BC1F480E694E09C017A
:100CC000F90101900020E9F7CF010197821B930BF6
:100CD000805A9B4F20E23BE2FC013183208320E2DB
:100CE00030E0FC013383228359C08091DB01909175
:100CF000DC010197C1F480E694E09C01F9010190C8
:100D00000020E9F7CF010197821B930B805A9B4F7C
:100D100020E23DE2FC013183208320E230E0FC014F
:100D2000338322833BC08091DB019091DC010297E9
:100D3000C1F480E694E09C01F90101900020E9F7FC
:100D4000CF010197821B930B805A9B4F20E23AE21E
:100D5000FC013183208320E230E0FC0133832283D5
:100D60001DC08091DB019091DC010397B9F480E60E
:100D700094E09C01F90101900020E9F7CF0101976F
:100D8000821B930B805A9B4F20E23FE2FC01318390
:100D9000208320E230E0FC013383228360E072E0B4
:100DA00080E694E00E94260F80E694E09C01F90121
:100DB00001900020E9F7CF010197821B930B805A25
:100DC0009B4F20E23DE3FC013183208320E230E0B1
:100DD000FC01338322830E94B2008CE090E0909368
:100DE0005D0480935C0460E674E081E090E00E9422
:100DF00063016AE371E081E190E00E946301809108
:100E00009C0190919D014AE050E060EF71E00E94EA
:100E1000310F60EF71E088E190E00E946301809102
:100E20001301882F90E04AE050E060EE71E00E94EC
:100E3000310F60EE71E080E290E00E9463018091EA
:100E40005C0490915D0480939F0184E090E09F8317
:100E50008E83E9C18091DF01882309F4E6C1809186
:100E6000DF01833221F481E08093980147C08091B3
:100E7000DF018A3211F580919E01882371F0809103
:100E80009E01815080939E0180919E01882F90E069
:100E900087569E4F20E2FC01208380919F01815064
:100EA00080939F0180915C0490915D04982F8091C4
:100EB0009F01890F0E948E0121C080919E01833085
:100EC000E8F480919E0191E0980F90939E01882F05
:100ED00090E02091DF0187569E4FFC012083809196
:100EE0009F018F5F80939F0180915C0490915D04CE
:100EF000982F80919F01890F0E948E0180915C0440
:100F000090915D0469E971E00E94630162E471E01F
:100F10008FE090E00E94630185E090E09F838E83E4
:100F200084C18091DF01882309F081C180919801FB
:100F3000882309F4C9C01092A1011092A00119825E
:100F400084E68A8382E08B831AC08B81082E000C92
:100F5000990B87569E4FFC018081803251F08B8126
:100F6000082E000C990B87569E4FFC018081882328
:100F700019F489818F5F89838B8181508B838B8169
:100F800088231CF78981833039F48FEF9FEF90938A
:100F9000A1018093A0016BC08A81082F10E0898194
:100FA000882F90E0A0E0B0E0BC01CD010E94DA0BF8
:100FB000DC01CB019C01AD0160E070E080E291E4D6
:100FC0000E94680CDC01CB0120E030E040E05FE3F0
:100FD000BC01CD010E94380BDC01CB01BC01CD016D
:100FE0000E94A40BDC01CB019C01C801B9010E9445
:100FF000E40ACB018A831D821C8235C08C819D81CD
:1010000087569E4FFC0180818823F9F08C819D8159
:1010100087569E4FFC018081882F90E0AC014053A1
:1010200051098A81882F90E0489F9001499F300D97
:10103000589F300D11248091A0019091A101820F41
:10104000931F9093A1018093A0019A818DEC989FAA
:10105000812D11248695869586958A838C819D8124
:1010600001969D838C838C819D8103973CF2209116
:10107000A0013091A10180915A0490915B0428173E
:10108000390729F486E090E09F838E8304C087E0CF
:1010900090E09F838E8380915A0490915B044AE094
:1010A00050E060E172E00E94310F109298011092BE
:1010B000990110929A0110929B0110929E01109238
:1010C000A3011092A201B3C084E090E09F838E83BD
:1010D000AEC00E94B20065E471E083E090E00E943F
:1010E000630162E571E083E190E00E94630160E1E9
:1010F00072E08DE190E00E94630180919C019091EB
:101100009D01019690939D0180939C0181E08093C5
:10111000120188E090E09F838E838CC00E94B20011
:101120006DE571E082E090E00E94630162E571E0AC
:1011300083E190E00E94630160E172E08DE190E064
:101140000E9463018091130181508093130181E01B
:101150008093120188E090E09F838E836BC0809122
:10116000A2019091A301C2969093A3018093A20142
:101170008091A2019091A301803D974009F059C050
:1011800080911301882329F489E090E09F838E8366
:1011900004C083E090E09F838E830E94B20049C028
:1011A0000E94B2006CE671E081E090E00E94630171
:1011B00080919C0190919D014AE050E060EF71E0C8
:1011C0000E94310F80EF91E09C01F9010190002015
:1011D000E9F7CF010197821B930B80519E4F26E0C8
:1011E000E5E7F1E0DC0101900D922A95E1F760EF6F
:1011F00071E089E090E00E9463016BE771E082E1B9
:1012000090E00E946301109296011092950181E096
:1012100090E09F838E830EC01F821E820BC0000051
:1012200009C0000007C0000005C0000003C00000A6
:1012300001C000008E819F8127960FB6F894DEBF13
:101240000FBECDBFDF91CF911F910F9108950F93E6
:101250001F93CF93DF93CDB7DEB761970FB6F894A6
:10126000DEBF0FBECDBF81E290E02FEFFC012083F7
:1012700082E290E0FC01108284E290E02FEFFC011A
:10128000208385E290E0FC01108287E290E020EF6D
:10129000FC01208388E290E02FE0FC0120838AE2B9
:1012A00090E02FEFFC0120838BE290E0FC011082A4
:1012B00086E0EAE8F1E0DE011C9601900D928A9545
:1012C000E1F783E090E09A8789878FEF8B878B85A2
:1012D0008093A40182E390E0A0E0B0E08093A501B8
:1012E0009093A601A093A701B093A8018091A501B6
:1012F0009091A601A091A701B091A8018093A901A6
:101300009093AA01A093AB01B093AC018AE294E060
:101310009093AE018093AD018B858093AF0189E1FD
:1013200090E0A0E0B0E08093B0019093B101A09371
:10133000B201B093B3018091B0019091B101A0913D
:10134000B201B091B3018093B4019093B501A09321
:10135000B601B093B70188E694E09093B901809309
:10136000B8018B858093BA0182E390E0A0E0B0E001
:101370008093BB019093BC01A093BD01B093BE01CB
:101380008091BB019091BC01A091BD01B091BE01C3
:101390008093BF019093C001A093C101B093C2019B
:1013A0008DEE95E09093C4018093C3018C859D855B
:1013B000FC0181819281A381B48189839A83AB836B
:1013C000BC8381E090E09E838D8325C08D819E81CA
:1013D000880F991F9E012F5F3F4F820F931F0B961F
:1013E000FC0180819181FC01218132814381548102
:1013F00089819A81AB81BC81BC01CD010E94D6025A
:10140000DC01CB0189839A83AB83BC838D819E8170
:1014100001969E838D832D813E8189859A8528172B
:101420003907A0F289819A81AB81BC81BC01CD01D1
:101430000E9423030E9451030E94BD0018861F8250
:10144000A0C08F819885880F991F9E012F5F3F4F05
:10145000820F931F0B96FC0180819181FC012581F5
:101460003681478150858F819885880F991FBE01ED
:101470006F5F7F4F860F971F0B96FC0180819181D4
:10148000FC0181819281A381B481281739074A0721
:101490005B0709F045C08F819885880F991F9E01D1
:1014A0002F5F3F4F820F931F0B96FC01008111812C
:1014B0008F819885880F991F9E012F5F3F4F820F64
:1014C000931F0B96FC0180819181FC01218532855F
:1014D0008F819885880F991FAE014F5F5F4F840FF2
:1014E000951F0B96FC0180819181FC018081082E63
:1014F000000C990BF9010995F80180838F8198857B
:10150000880F991F9E012F5F3F4F820F931F0B96ED
:10151000FC0180819181FC01158216821782108660
:101520008F819885880F991F9E012F5F3F4F820FF3
:10153000931F0B96FC01608171818F819885880FC4
:10154000991F9E012F5F3F4F820F931F0B96FC0147
:1015500080819181FC012581368147815085898177
:101560009A81AB81BC81820F931FA41FB51FFB0121
:1015700085839683A783B0878F8198850196988706
:101580008F832F81388589859A852817390708F434
:1015900058CF0000809190018823E1F310929001D0
:1015A0004DCFFC010FB6F89460916C0470916D04FE
:1015B00080916E0490916F040FBE309721F060838C
:1015C000718382839383089597FB072E16F400940A
:1015D00007D077FD09D00E94230B07FC05D03EF40D
:1015E000909581959F4F0895709561957F4F0895CF
:1015F000A1E21A2EAA1BBB1BFD010DC0AA1FBB1F17
:10160000EE1FFF1FA217B307E407F50720F0A21B88
:10161000B30BE40BF50B661F771F881F991F1A94F5
:1016200069F760957095809590959B01AC01BD011F
:10163000CF010895EE0FFF1F0024001C0BBE079082
:10164000F691E02D0994AA1BBB1B51E107C0AA1F0C
:10165000BB1FA617B70710F0A61BB70B881F991F53
:101660005A95A9F780959095BC01CD0108955058E1
:10167000BB27AA270E944F0B0C942E0C0E94200C13
:1016800038F00E94270C20F039F49F3F19F426F41B
:101690000C941D0C0EF4E095E7FB0C94170CE92F4D
:1016A0000E943F0C58F3BA17620773078407950727
:1016B00020F079F4A6F50C94610C0EF4E0950B2E55
:1016C000BA2FA02D0B01B90190010C01CA01A00194
:1016D0001124FF27591B99F0593F50F4503E68F1EF
:1016E0001A16F040A22F232F342F4427585FF3CF30
:1016F000469537952795A795F0405395C9F77EF401
:101700001F16BA0B620B730B840BBAF09150A1F049
:10171000FF0FBB1F661F771F881FC2F70EC0BA0FCF
:10172000621F731F841F48F4879577956795B79557
:10173000F7959E3F08F0B0CF9395880F08F0992752
:10174000EE0F9795879508950E94AB0B6894B111A1
:101750000C94620C08950E94470C88F09F5798F0F3
:10176000B92F9927B751B0F0E1F0660F771F881FA6
:10177000991F1AF0BA95C9F714C0B13091F00E94C0
:10178000610CB1E008950C94610C672F782F8827C5
:10179000B85F39F0B93FCCF3869577956795B395E7
:1017A000D9F73EF490958095709561957F4F8F4F56
:1017B0009F4F0895E89409C097FB3EF4909580955B
:1017C000709561957F4F8F4F9F4F9923A9F0F92F07
:1017D00096E9BB279395F695879577956795B79585
:1017E000F111F8CFFAF4BB0F11F460FF1BC06F5F6B
:1017F0007F4F8F4F9F4F16C0882311F096E911C07D
:10180000772321F09EE8872F762F05C0662371F09D
:1018100096E8862F70E060E02AF09A95660F771FB1
:10182000881FDAF7880F9695879597F9089597F9A5
:101830009F6780E870E060E008959FEF80EC089576
:1018400000240A941616170618060906089500249F
:101850000A9412161306140605060895092E039419
:10186000000C11F4882352F0BB0F40F4BF2B11F48D
:1018700060FF04C06F5F7F4F8F4F9F4F089557FDEC
:101880009058440F551F59F05F3F71F04795880FEE
:1018900097FB991F61F09F3F79F087950895121685
:1018A00013061406551FF2CF4695F1DF08C0161631
:1018B00017061806991FF1CF8695710561050894E2
:1018C0000895E894BB2766277727CB0197F90895F9
:1018D000FA01EE0FFF1F309621053105A1F16115C8
:1018E000710561F48038BFE39B0749F16894903833
:1018F000810561F08038BFEF9B0741F099234AF5DD
:10190000FF3FE1053105210519F1E8940894E795B9
:10191000D901AA2329F4AB2FBE2FF85FD0F310C052
:10192000FF5F70F4A695E0F7F73950F019F0FF3A31
:1019300038F49F779F930DD00F9007FC905808952F
:1019400046F00C941D0C60E070E080E89FE3089581
:101950004FE79F775F934F933F932F930E94630DC1
:101960002F913F914F915F910E94DF0D0C94C00C1D
:1019700029F416F00C94170C0C94610C0C941D0CAB
:101980000E94470CA8F39638A0F707F80F92E89446
:101990002BE33AEA48EB5FE70E94F50D0F920F92B6
:1019A0000F924DB75EB70F920E94AB0DE0EAF0E0E8
:1019B0000E94F20C4F915F91EF91FF91E595EE1F20
:1019C000FF1F49F0FE57E0684427EE0F441FFA95C9
:1019D000E1F74195550B0E94250D0F9007FE0C94E1
:1019E000190D0895DF93CF931F930F93FF92EF92FA
:1019F000DF927B018C01689406C0DA2EEF010E9411
:101A0000F20DFE01E894A5912591359145915591EE
:101A1000A6F3EF010E944F0BFE019701A801DA9493
:101A200069F7DF90EF90FF900F911F91CF91DF91B9
:101A300008959B01AC0160E070E080E89FE30C94A6
:101A40004C0E0C94170C0C94BE0E0E94470CD8F34D
:101A50009923C9F3940F511DA3F39150504094F072
:101A600059F0882332F0660F771F881F915050403D
:101A7000C1F79E3F51052CF7880F911D96958795CC
:101A800097F908955F3FACF0983E9CF0BB27869590
:101A900077956795B79508F4B1609395C1F7BB0F3B
:101AA00058F711F460FFE8CF6F5F7F4F8F4F9F4F64
:101AB000E3CF0C94620C16F00C94BE0E0C941D0C2B
:101AC00068940C94170C0E94470CA8F39923C1F357
:101AD000AEF3DF93CF931F930F93FF92C92FDD27B0
:101AE00088232AF02197660F771F881FDAF720E0F6
:101AF00030E040E85FEB9FE3883920F0803E38F02B
:101B000021968F770E94380BE8ECF0E004C00E9429
:101B1000380BE5EFF0E00E94F20C8B01BE01EC0106
:101B2000FB2E6F5771097595771F880B990B0E94D3
:101B3000DC0B28E132E741E35FE30E94F20DAF2DB9
:101B40009801AE01FF900F911F91CF91DF910E94FC
:101B50004F0B0C942E0CFA01DC01AA0FBB1F9B014A
:101B6000AC01BF5728F4222733274427507820C0E0
:101B7000B75190F4AB2F0024469537952795011C5B
:101B8000A395D2F3002071F0220F331F441FB395A9
:101B9000DAF30ED00C94370B61307105A0E88A0798
:101BA000B94630F49B01AC016627772788279078E7
:101BB000309621F0208331834283538308950E941D
:101BC000F20D0C942E0C0E94200C38F00E94270C71
:101BD00020F0952311F00C94170C0C941D0C11247B
:101BE0000C94620C0E943F0C70F3959FC1F3950F0B
:101BF00050E0551F629FF001729FBB27F00DB11D91
:101C0000639FAA27F00DB11DAA1F649F6627B00D20
:101C1000A11D661F829F2227B00DA11D621F739F09
:101C2000B00DA11D621F839FA00D611D221F749F17
:101C30003327A00D611D231F849F600D211D822F5E
:101C4000762F6A2F11249F5750409AF0F1F0882385
:101C50004AF0EE0FFF1FBB1F661F771F881F9150B2
:101C60005040A9F79E3F510580F00C94170C0C943E
:101C7000620C5F3FE4F3983ED4F3869577956795C1
:101C8000B795F795E7959F5FC1F7FE2B880F911DDC
:101C90009695879597F908950E94600E0C942E0CE6
:101CA0000E94270C58F00E94200C40F029F45F3F5E
:101CB00029F00C94170C51110C94620C0C941D0C0F
:101CC0000E943F0C68F39923B1F3552391F3951BC0
:101CD000550BBB27AA2762177307840738F09F5F4D
:101CE0005F4F220F331F441FAA1FA9F335D00E2EBA
:101CF0003AF0E0E832D091505040E695001CCAF727
:101D00002BD0FE2F29D0660F771F881FBB1F2617E9
:101D100037074807AB07B0E809F0BB0B802DBF01C0
:101D2000FF2793585F4F3AF09E3F510578F00C948F
:101D3000170C0C94620C5F3FE4F3983ED4F3869545
:101D400077956795B795F7959F5FC9F7880F911DB0
:101D50009695879597F90895E1E0660F771F881F9C
:101D6000BB1F621773078407BA0720F0621B730B4F
:101D7000840BBA0BEE1F88F7E09508959F3F31F072
:101D8000915020F4879577956795B795880F911DA9
:101D90009695879597F908958F929F92AF92BF92EB
:101DA000CF92DF92EF92FF92CF93DF93EC016881A5
:101DB00079818A819B81611571058105910521F4E5
:101DC00064E279ED8BE597E02DE133EF41E050E0FF
:101DD0000E94710F49015A019B01AC01A7EAB1E4CD
:101DE0000E94900F6B017C01ACEEB4EFA501940151
:101DF0000E949E0FDC01CB018C0D9D1DAE1DBF1DF1
:101E0000B7FF03C00197A109B04888839983AA83CB
:101E1000BB839F77DF91CF91FF90EF90DF90CF90C2
:101E2000BF90AF909F908F9008950C94CC0E84E15A
:101E300091E00C94CC0EA0E0B0E08093140190935C
:101E40001501A0931601B09317010895FB01DC0161
:101E50000D900020E9F7119701900D920020E1F715
:101E600008954532510520F4423010F00C943C0F97
:101E7000FB011082CB010895BB274A3031F499232E
:101E800022F4BDE2909581959F4F0C94480FBB279B
:101E9000FB015527AA27880F991FAA1FA41710F026
:101EA000A41B83955051B9F7A05DAA3308F0A95D32
:101EB000A193009779F7B111B1931192CB010C94D2
:101EC000610FDC01FC01672F71917723E1F73297F5
:101ED00004C07C916D9370836291AE17BF07C8F305
:101EE0000895052E97FB1EF400940E94880F57FD5D
:101EF00007D00E94F80A07FC03D04EF40C94880F18
:101F000050954095309521953F4F4F4F5F4F089525
:101F100090958095709561957F4F8F4F9F4F089555
:101F20000E94A30FA59F900DB49F900DA49F800DBC
:101F3000911D11240895B7FF0C94900F0E94900FEB
:101F4000821B930B0895A29FB001B39FC001A39F72
:101F5000700D811D1124911DB29F700D811D1124E2
:081F6000911D0895F894FFCFD4
:101F68000100000000000002000000000104000061
:101F780000000103010000002A2A4D6174682D2D1C
:101F88004D61737465722A2A005072657373202339
:101F980020746F20706C6179210053636F72653A09
:101FA8002000202000436F72726563742121203A5B
:101FB8002900536F6C7574696F6E3A2000496E631F
:101FC8006F72726563742E2E203A280046494E4976
:101FD8005348212000207074732100526573746186
:101FE80072742077697468202300A401AF01BA01D4
:00000001FF
